{
  "address": "0xcf86483801BC1b55c8217a6c736BB4874dD0b41F",
  "abi": [
    {
      "anonymous": false,
      "inputs": [
        {
          "indexed": true,
          "internalType": "address",
          "name": "account",
          "type": "address"
        },
        {
          "indexed": false,
          "internalType": "uint256",
          "name": "amount",
          "type": "uint256"
        }
      ],
      "name": "Claim",
      "type": "event"
    },
    {
      "anonymous": false,
      "inputs": [
        {
          "indexed": false,
          "internalType": "uint8",
          "name": "version",
          "type": "uint8"
        }
      ],
      "name": "Initialized",
      "type": "event"
    },
    {
      "anonymous": false,
      "inputs": [
        {
          "indexed": true,
          "internalType": "bytes32",
          "name": "role",
          "type": "bytes32"
        },
        {
          "indexed": true,
          "internalType": "bytes32",
          "name": "previousAdminRole",
          "type": "bytes32"
        },
        {
          "indexed": true,
          "internalType": "bytes32",
          "name": "newAdminRole",
          "type": "bytes32"
        }
      ],
      "name": "RoleAdminChanged",
      "type": "event"
    },
    {
      "anonymous": false,
      "inputs": [
        {
          "indexed": true,
          "internalType": "bytes32",
          "name": "role",
          "type": "bytes32"
        },
        {
          "indexed": true,
          "internalType": "address",
          "name": "account",
          "type": "address"
        },
        {
          "indexed": true,
          "internalType": "address",
          "name": "sender",
          "type": "address"
        }
      ],
      "name": "RoleGranted",
      "type": "event"
    },
    {
      "anonymous": false,
      "inputs": [
        {
          "indexed": true,
          "internalType": "bytes32",
          "name": "role",
          "type": "bytes32"
        },
        {
          "indexed": true,
          "internalType": "address",
          "name": "account",
          "type": "address"
        },
        {
          "indexed": true,
          "internalType": "address",
          "name": "sender",
          "type": "address"
        }
      ],
      "name": "RoleRevoked",
      "type": "event"
    },
    {
      "anonymous": false,
      "inputs": [
        {
          "indexed": true,
          "internalType": "address",
          "name": "account",
          "type": "address"
        },
        {
          "indexed": false,
          "internalType": "uint256",
          "name": "amount",
          "type": "uint256"
        }
      ],
      "name": "Stake",
      "type": "event"
    },
    {
      "anonymous": false,
      "inputs": [
        {
          "indexed": true,
          "internalType": "address",
          "name": "account",
          "type": "address"
        },
        {
          "indexed": false,
          "internalType": "uint256",
          "name": "amount",
          "type": "uint256"
        }
      ],
      "name": "Unstake",
      "type": "event"
    },
    {
      "inputs": [],
      "name": "DEFAULT_ADMIN_ROLE",
      "outputs": [
        {
          "internalType": "bytes32",
          "name": "",
          "type": "bytes32"
        }
      ],
      "stateMutability": "view",
      "type": "function"
    },
    {
      "inputs": [],
      "name": "MANAGER_ROLE",
      "outputs": [
        {
          "internalType": "bytes32",
          "name": "",
          "type": "bytes32"
        }
      ],
      "stateMutability": "view",
      "type": "function"
    },
    {
      "inputs": [],
      "name": "OWNER_ROLE",
      "outputs": [
        {
          "internalType": "bytes32",
          "name": "",
          "type": "bytes32"
        }
      ],
      "stateMutability": "view",
      "type": "function"
    },
    {
      "inputs": [
        {
          "components": [
            {
              "internalType": "uint256",
              "name": "rewardRate",
              "type": "uint256"
            },
            {
              "internalType": "uint256",
              "name": "minStake",
              "type": "uint256"
            },
            {
              "internalType": "uint256",
              "name": "maxStake",
              "type": "uint256"
            },
            {
              "internalType": "contract ERC20",
              "name": "stakingToken",
              "type": "address"
            },
            {
              "internalType": "contract ERC20",
              "name": "rewardsToken",
              "type": "address"
            }
          ],
          "internalType": "struct StakingUtils.StakingConfiguration",
          "name": "config",
          "type": "tuple"
        }
      ],
      "name": "__BaseStaking_init",
      "outputs": [],
      "stateMutability": "nonpayable",
      "type": "function"
    },
    {
      "inputs": [
        {
          "components": [
            {
              "internalType": "uint256",
              "name": "rewardRate",
              "type": "uint256"
            },
            {
              "internalType": "uint256",
              "name": "minStake",
              "type": "uint256"
            },
            {
              "internalType": "uint256",
              "name": "maxStake",
              "type": "uint256"
            },
            {
              "internalType": "contract ERC20",
              "name": "stakingToken",
              "type": "address"
            },
            {
              "internalType": "contract ERC20",
              "name": "rewardsToken",
              "type": "address"
            }
          ],
          "internalType": "struct StakingUtils.StakingConfiguration",
          "name": "config",
          "type": "tuple"
        }
      ],
      "name": "__BaseStaking_init_unchained",
      "outputs": [],
      "stateMutability": "nonpayable",
      "type": "function"
    },
    {
      "inputs": [
        {
          "components": [
            {
              "internalType": "uint256",
              "name": "rewardRate",
              "type": "uint256"
            },
            {
              "internalType": "uint256",
              "name": "minStake",
              "type": "uint256"
            },
            {
              "internalType": "uint256",
              "name": "maxStake",
              "type": "uint256"
            },
            {
              "internalType": "contract ERC20",
              "name": "stakingToken",
              "type": "address"
            },
            {
              "internalType": "contract ERC20",
              "name": "rewardsToken",
              "type": "address"
            }
          ],
          "internalType": "struct StakingUtils.StakingConfiguration",
          "name": "config",
          "type": "tuple"
        },
        {
          "components": [
            {
              "internalType": "uint256",
              "name": "stakeTax",
              "type": "uint256"
            },
            {
              "internalType": "uint256",
              "name": "unStakeTax",
              "type": "uint256"
            },
            {
              "internalType": "uint256",
              "name": "hpayFee",
              "type": "uint256"
            },
            {
              "internalType": "address",
              "name": "feeAddress",
              "type": "address"
            },
            {
              "internalType": "address",
              "name": "hpayFeeAddress",
              "type": "address"
            },
            {
              "internalType": "contract ERC20",
              "name": "hpayToken",
              "type": "address"
            }
          ],
          "internalType": "struct StakingUtils.TaxConfiguration",
          "name": "taxConfig",
          "type": "tuple"
        },
        {
          "components": [
            {
              "internalType": "uint256",
              "name": "lockTime",
              "type": "uint256"
            },
            {
              "internalType": "uint256",
              "name": "earlyUnlockPenalty",
              "type": "uint256"
            },
            {
              "internalType": "bool",
              "name": "allowEarlyUnlock",
              "type": "bool"
            }
          ],
          "internalType": "struct StakingUtils.LockConfiguration",
          "name": "lockConfig",
          "type": "tuple"
        }
      ],
      "name": "__FixedTimeLockStaking_init",
      "outputs": [],
      "stateMutability": "nonpayable",
      "type": "function"
    },
    {
      "inputs": [
        {
          "components": [
            {
              "internalType": "uint256",
              "name": "lockTime",
              "type": "uint256"
            },
            {
              "internalType": "uint256",
              "name": "earlyUnlockPenalty",
              "type": "uint256"
            },
            {
              "internalType": "bool",
              "name": "allowEarlyUnlock",
              "type": "bool"
            }
          ],
          "internalType": "struct StakingUtils.LockConfiguration",
          "name": "lockConfig",
          "type": "tuple"
        }
      ],
      "name": "__FixedTimeLockStaking_init_unchained",
      "outputs": [],
      "stateMutability": "nonpayable",
      "type": "function"
    },
    {
      "inputs": [
        {
          "components": [
            {
              "internalType": "uint256",
              "name": "rewardRate",
              "type": "uint256"
            },
            {
              "internalType": "uint256",
              "name": "minStake",
              "type": "uint256"
            },
            {
              "internalType": "uint256",
              "name": "maxStake",
              "type": "uint256"
            },
            {
              "internalType": "contract ERC20",
              "name": "stakingToken",
              "type": "address"
            },
            {
              "internalType": "contract ERC20",
              "name": "rewardsToken",
              "type": "address"
            }
          ],
          "internalType": "struct StakingUtils.StakingConfiguration",
          "name": "config",
          "type": "tuple"
        },
        {
          "components": [
            {
              "internalType": "uint256",
              "name": "stakeTax",
              "type": "uint256"
            },
            {
              "internalType": "uint256",
              "name": "unStakeTax",
              "type": "uint256"
            },
            {
              "internalType": "uint256",
              "name": "hpayFee",
              "type": "uint256"
            },
            {
              "internalType": "address",
              "name": "feeAddress",
              "type": "address"
            },
            {
              "internalType": "address",
              "name": "hpayFeeAddress",
              "type": "address"
            },
            {
              "internalType": "contract ERC20",
              "name": "hpayToken",
              "type": "address"
            }
          ],
          "internalType": "struct StakingUtils.TaxConfiguration",
          "name": "taxConfig",
          "type": "tuple"
        },
        {
          "components": [
            {
              "internalType": "uint256",
              "name": "lockTime",
              "type": "uint256"
            },
            {
              "internalType": "uint256",
              "name": "earlyUnlockPenalty",
              "type": "uint256"
            },
            {
              "internalType": "bool",
              "name": "allowEarlyUnlock",
              "type": "bool"
            }
          ],
          "internalType": "struct StakingUtils.LockConfiguration",
          "name": "lockConfig",
          "type": "tuple"
        }
      ],
      "name": "__StaticFixedTimeLockStaking_init",
      "outputs": [],
      "stateMutability": "nonpayable",
      "type": "function"
    },
    {
      "inputs": [
        {
          "components": [
            {
              "internalType": "uint256",
              "name": "rewardRate",
              "type": "uint256"
            },
            {
              "internalType": "uint256",
              "name": "minStake",
              "type": "uint256"
            },
            {
              "internalType": "uint256",
              "name": "maxStake",
              "type": "uint256"
            },
            {
              "internalType": "contract ERC20",
              "name": "stakingToken",
              "type": "address"
            },
            {
              "internalType": "contract ERC20",
              "name": "rewardsToken",
              "type": "address"
            }
          ],
          "internalType": "struct StakingUtils.StakingConfiguration",
          "name": "config",
          "type": "tuple"
        },
        {
          "components": [
            {
              "internalType": "uint256",
              "name": "stakeTax",
              "type": "uint256"
            },
            {
              "internalType": "uint256",
              "name": "unStakeTax",
              "type": "uint256"
            },
            {
              "internalType": "uint256",
              "name": "hpayFee",
              "type": "uint256"
            },
            {
              "internalType": "address",
              "name": "feeAddress",
              "type": "address"
            },
            {
              "internalType": "address",
              "name": "hpayFeeAddress",
              "type": "address"
            },
            {
              "internalType": "contract ERC20",
              "name": "hpayToken",
              "type": "address"
            }
          ],
          "internalType": "struct StakingUtils.TaxConfiguration",
          "name": "taxConfig",
          "type": "tuple"
        }
      ],
      "name": "__TaxedStaking_init",
      "outputs": [],
      "stateMutability": "nonpayable",
      "type": "function"
    },
    {
      "inputs": [
        {
          "components": [
            {
              "internalType": "uint256",
              "name": "stakeTax",
              "type": "uint256"
            },
            {
              "internalType": "uint256",
              "name": "unStakeTax",
              "type": "uint256"
            },
            {
              "internalType": "uint256",
              "name": "hpayFee",
              "type": "uint256"
            },
            {
              "internalType": "address",
              "name": "feeAddress",
              "type": "address"
            },
            {
              "internalType": "address",
              "name": "hpayFeeAddress",
              "type": "address"
            },
            {
              "internalType": "contract ERC20",
              "name": "hpayToken",
              "type": "address"
            }
          ],
          "internalType": "struct StakingUtils.TaxConfiguration",
          "name": "taxConfig",
          "type": "tuple"
        }
      ],
      "name": "__TaxedStaking_init_unchained",
      "outputs": [],
      "stateMutability": "nonpayable",
      "type": "function"
    },
    {
      "inputs": [
        {
          "internalType": "address",
          "name": "",
          "type": "address"
        }
      ],
      "name": "_balances",
      "outputs": [
        {
          "internalType": "uint256",
          "name": "",
          "type": "uint256"
        }
      ],
      "stateMutability": "view",
      "type": "function"
    },
    {
      "inputs": [],
      "name": "_rewardSupply",
      "outputs": [
        {
          "internalType": "uint256",
          "name": "",
          "type": "uint256"
        }
      ],
      "stateMutability": "view",
      "type": "function"
    },
    {
      "inputs": [],
      "name": "_totalSupply",
      "outputs": [
        {
          "internalType": "uint256",
          "name": "",
          "type": "uint256"
        }
      ],
      "stateMutability": "view",
      "type": "function"
    },
    {
      "inputs": [],
      "name": "allowEarlyUnlock",
      "outputs": [
        {
          "internalType": "bool",
          "name": "",
          "type": "bool"
        }
      ],
      "stateMutability": "view",
      "type": "function"
    },
    {
      "inputs": [],
      "name": "blocksLeft",
      "outputs": [
        {
          "internalType": "uint256",
          "name": "",
          "type": "uint256"
        }
      ],
      "stateMutability": "view",
      "type": "function"
    },
    {
      "inputs": [],
      "name": "claim",
      "outputs": [],
      "stateMutability": "nonpayable",
      "type": "function"
    },
    {
      "inputs": [],
      "name": "compound",
      "outputs": [],
      "stateMutability": "nonpayable",
      "type": "function"
    },
    {
      "inputs": [],
      "name": "configuration",
      "outputs": [
        {
          "internalType": "uint256",
          "name": "rewardRate",
          "type": "uint256"
        },
        {
          "internalType": "uint256",
          "name": "minStake",
          "type": "uint256"
        },
        {
          "internalType": "uint256",
          "name": "maxStake",
          "type": "uint256"
        },
        {
          "internalType": "contract ERC20",
          "name": "stakingToken",
          "type": "address"
        },
        {
          "internalType": "contract ERC20",
          "name": "rewardsToken",
          "type": "address"
        }
      ],
      "stateMutability": "view",
      "type": "function"
    },
    {
      "inputs": [],
      "name": "earlyUnlockPenalty",
      "outputs": [
        {
          "internalType": "uint256",
          "name": "",
          "type": "uint256"
        }
      ],
      "stateMutability": "view",
      "type": "function"
    },
    {
      "inputs": [
        {
          "internalType": "address",
          "name": "account",
          "type": "address"
        }
      ],
      "name": "earned",
      "outputs": [
        {
          "internalType": "uint256",
          "name": "",
          "type": "uint256"
        }
      ],
      "stateMutability": "view",
      "type": "function"
    },
    {
      "inputs": [],
      "name": "endBlock",
      "outputs": [
        {
          "internalType": "uint256",
          "name": "",
          "type": "uint256"
        }
      ],
      "stateMutability": "view",
      "type": "function"
    },
    {
      "inputs": [],
      "name": "getInfo",
      "outputs": [
        {
          "internalType": "uint256[6]",
          "name": "",
          "type": "uint256[6]"
        }
      ],
      "stateMutability": "view",
      "type": "function"
    },
    {
      "inputs": [
        {
          "internalType": "bytes32",
          "name": "role",
          "type": "bytes32"
        }
      ],
      "name": "getRoleAdmin",
      "outputs": [
        {
          "internalType": "bytes32",
          "name": "",
          "type": "bytes32"
        }
      ],
      "stateMutability": "view",
      "type": "function"
    },
    {
      "inputs": [
        {
          "internalType": "bytes32",
          "name": "role",
          "type": "bytes32"
        },
        {
          "internalType": "address",
          "name": "account",
          "type": "address"
        }
      ],
      "name": "grantRole",
      "outputs": [],
      "stateMutability": "nonpayable",
      "type": "function"
    },
    {
      "inputs": [
        {
          "internalType": "bytes32",
          "name": "role",
          "type": "bytes32"
        },
        {
          "internalType": "address",
          "name": "account",
          "type": "address"
        }
      ],
      "name": "hasRole",
      "outputs": [
        {
          "internalType": "bool",
          "name": "",
          "type": "bool"
        }
      ],
      "stateMutability": "view",
      "type": "function"
    },
    {
      "inputs": [
        {
          "components": [
            {
              "internalType": "uint256",
              "name": "rewardRate",
              "type": "uint256"
            },
            {
              "internalType": "uint256",
              "name": "minStake",
              "type": "uint256"
            },
            {
              "internalType": "uint256",
              "name": "maxStake",
              "type": "uint256"
            },
            {
              "internalType": "contract ERC20",
              "name": "stakingToken",
              "type": "address"
            },
            {
              "internalType": "contract ERC20",
              "name": "rewardsToken",
              "type": "address"
            }
          ],
          "internalType": "struct StakingUtils.StakingConfiguration",
          "name": "config",
          "type": "tuple"
        },
        {
          "components": [
            {
              "internalType": "uint256",
              "name": "stakeTax",
              "type": "uint256"
            },
            {
              "internalType": "uint256",
              "name": "unStakeTax",
              "type": "uint256"
            },
            {
              "internalType": "uint256",
              "name": "hpayFee",
              "type": "uint256"
            },
            {
              "internalType": "address",
              "name": "feeAddress",
              "type": "address"
            },
            {
              "internalType": "address",
              "name": "hpayFeeAddress",
              "type": "address"
            },
            {
              "internalType": "contract ERC20",
              "name": "hpayToken",
              "type": "address"
            }
          ],
          "internalType": "struct StakingUtils.TaxConfiguration",
          "name": "taxConfig",
          "type": "tuple"
        },
        {
          "components": [
            {
              "internalType": "uint256",
              "name": "lockTime",
              "type": "uint256"
            },
            {
              "internalType": "uint256",
              "name": "earlyUnlockPenalty",
              "type": "uint256"
            },
            {
              "internalType": "bool",
              "name": "allowEarlyUnlock",
              "type": "bool"
            }
          ],
          "internalType": "struct StakingUtils.LockConfiguration",
          "name": "lockConfig",
          "type": "tuple"
        }
      ],
      "name": "initialize",
      "outputs": [],
      "stateMutability": "nonpayable",
      "type": "function"
    },
    {
      "inputs": [],
      "name": "lastUpdateBlock",
      "outputs": [
        {
          "internalType": "uint256",
          "name": "",
          "type": "uint256"
        }
      ],
      "stateMutability": "view",
      "type": "function"
    },
    {
      "inputs": [
        {
          "internalType": "address",
          "name": "account",
          "type": "address"
        }
      ],
      "name": "lockEnded",
      "outputs": [
        {
          "internalType": "bool",
          "name": "",
          "type": "bool"
        }
      ],
      "stateMutability": "view",
      "type": "function"
    },
    {
      "inputs": [],
      "name": "lockTime",
      "outputs": [
        {
          "internalType": "uint256",
          "name": "",
          "type": "uint256"
        }
      ],
      "stateMutability": "view",
      "type": "function"
    },
    {
      "inputs": [
        {
          "internalType": "address",
          "name": "",
          "type": "address"
        }
      ],
      "name": "locks",
      "outputs": [
        {
          "internalType": "uint256",
          "name": "",
          "type": "uint256"
        }
      ],
      "stateMutability": "view",
      "type": "function"
    },
    {
      "inputs": [
        {
          "internalType": "bytes32",
          "name": "role",
          "type": "bytes32"
        },
        {
          "internalType": "address",
          "name": "account",
          "type": "address"
        }
      ],
      "name": "renounceRole",
      "outputs": [],
      "stateMutability": "nonpayable",
      "type": "function"
    },
    {
      "inputs": [
        {
          "internalType": "contract IERC20",
          "name": "_token",
          "type": "address"
        },
        {
          "internalType": "address",
          "name": "_destination",
          "type": "address"
        }
      ],
      "name": "rescueTokens",
      "outputs": [],
      "stateMutability": "nonpayable",
      "type": "function"
    },
    {
      "inputs": [
        {
          "internalType": "bytes32",
          "name": "role",
          "type": "bytes32"
        },
        {
          "internalType": "address",
          "name": "account",
          "type": "address"
        }
      ],
      "name": "revokeRole",
      "outputs": [],
      "stateMutability": "nonpayable",
      "type": "function"
    },
    {
      "inputs": [],
      "name": "rewardPerTokenStored",
      "outputs": [
        {
          "internalType": "uint256",
          "name": "",
          "type": "uint256"
        }
      ],
      "stateMutability": "view",
      "type": "function"
    },
    {
      "inputs": [
        {
          "internalType": "address",
          "name": "",
          "type": "address"
        }
      ],
      "name": "rewards",
      "outputs": [
        {
          "internalType": "uint256",
          "name": "",
          "type": "uint256"
        }
      ],
      "stateMutability": "view",
      "type": "function"
    },
    {
      "inputs": [
        {
          "internalType": "bool",
          "name": "status",
          "type": "bool"
        }
      ],
      "name": "setAllowEarlyUnlock",
      "outputs": [],
      "stateMutability": "nonpayable",
      "type": "function"
    },
    {
      "inputs": [
        {
          "internalType": "address",
          "name": "_hpay",
          "type": "address"
        }
      ],
      "name": "setHpayAddress",
      "outputs": [],
      "stateMutability": "nonpayable",
      "type": "function"
    },
    {
      "inputs": [
        {
          "internalType": "uint256",
          "name": "tax",
          "type": "uint256"
        }
      ],
      "name": "setHpayTax",
      "outputs": [],
      "stateMutability": "nonpayable",
      "type": "function"
    },
    {
      "inputs": [
        {
          "internalType": "uint256",
          "name": "minStake",
          "type": "uint256"
        },
        {
          "internalType": "uint256",
          "name": "maxStake",
          "type": "uint256"
        }
      ],
      "name": "setLimits",
      "outputs": [],
      "stateMutability": "nonpayable",
      "type": "function"
    },
    {
      "inputs": [
        {
          "internalType": "uint256",
          "name": "penalty",
          "type": "uint256"
        }
      ],
      "name": "setPenalty",
      "outputs": [],
      "stateMutability": "nonpayable",
      "type": "function"
    },
    {
      "inputs": [
        {
          "internalType": "uint256",
          "name": "rate",
          "type": "uint256"
        }
      ],
      "name": "setRewardRate",
      "outputs": [],
      "stateMutability": "nonpayable",
      "type": "function"
    },
    {
      "inputs": [
        {
          "internalType": "uint256",
          "name": "stakeTax",
          "type": "uint256"
        },
        {
          "internalType": "uint256",
          "name": "unstakeTax",
          "type": "uint256"
        }
      ],
      "name": "setTax",
      "outputs": [],
      "stateMutability": "nonpayable",
      "type": "function"
    },
    {
      "inputs": [
        {
          "internalType": "address",
          "name": "_ownerTaxAddress",
          "type": "address"
        },
        {
          "internalType": "address",
          "name": "_hpayTaxAddress",
          "type": "address"
        }
      ],
      "name": "setTaxAddresses",
      "outputs": [],
      "stateMutability": "nonpayable",
      "type": "function"
    },
    {
      "inputs": [
        {
          "internalType": "uint256",
          "name": "_lockTime",
          "type": "uint256"
        }
      ],
      "name": "setTimelock",
      "outputs": [],
      "stateMutability": "nonpayable",
      "type": "function"
    },
    {
      "inputs": [
        {
          "internalType": "uint256",
          "name": "_amount",
          "type": "uint256"
        }
      ],
      "name": "stake",
      "outputs": [],
      "stateMutability": "nonpayable",
      "type": "function"
    },
    {
      "inputs": [],
      "name": "start",
      "outputs": [],
      "stateMutability": "nonpayable",
      "type": "function"
    },
    {
      "inputs": [],
      "name": "started",
      "outputs": [
        {
          "internalType": "bool",
          "name": "",
          "type": "bool"
        }
      ],
      "stateMutability": "view",
      "type": "function"
    },
    {
      "inputs": [
        {
          "internalType": "bytes4",
          "name": "interfaceId",
          "type": "bytes4"
        }
      ],
      "name": "supportsInterface",
      "outputs": [
        {
          "internalType": "bool",
          "name": "",
          "type": "bool"
        }
      ],
      "stateMutability": "view",
      "type": "function"
    },
    {
      "inputs": [],
      "name": "taxConfiguration",
      "outputs": [
        {
          "internalType": "uint256",
          "name": "stakeTax",
          "type": "uint256"
        },
        {
          "internalType": "uint256",
          "name": "unStakeTax",
          "type": "uint256"
        },
        {
          "internalType": "uint256",
          "name": "hpayFee",
          "type": "uint256"
        },
        {
          "internalType": "address",
          "name": "feeAddress",
          "type": "address"
        },
        {
          "internalType": "address",
          "name": "hpayFeeAddress",
          "type": "address"
        },
        {
          "internalType": "contract ERC20",
          "name": "hpayToken",
          "type": "address"
        }
      ],
      "stateMutability": "view",
      "type": "function"
    },
    {
      "inputs": [],
      "name": "timelockConfigurations",
      "outputs": [
        {
          "internalType": "uint256[2]",
          "name": "",
          "type": "uint256[2]"
        }
      ],
      "stateMutability": "view",
      "type": "function"
    },
    {
      "inputs": [
        {
          "internalType": "uint256",
          "name": "amount",
          "type": "uint256"
        }
      ],
      "name": "topUpRewards",
      "outputs": [],
      "stateMutability": "nonpayable",
      "type": "function"
    },
    {
      "inputs": [],
      "name": "unlockTime",
      "outputs": [
        {
          "internalType": "uint256",
          "name": "",
          "type": "uint256"
        }
      ],
      "stateMutability": "view",
      "type": "function"
    },
    {
      "inputs": [
        {
          "internalType": "address",
          "name": "account",
          "type": "address"
        }
      ],
      "name": "updateLock",
      "outputs": [],
      "stateMutability": "nonpayable",
      "type": "function"
    },
    {
      "inputs": [
        {
          "internalType": "address",
          "name": "account",
          "type": "address"
        }
      ],
      "name": "userInfo",
      "outputs": [
        {
          "internalType": "uint256[2]",
          "name": "",
          "type": "uint256[2]"
        }
      ],
      "stateMutability": "view",
      "type": "function"
    },
    {
      "inputs": [
        {
          "internalType": "address",
          "name": "",
          "type": "address"
        }
      ],
      "name": "userRewardPerTokenPaid",
      "outputs": [
        {
          "internalType": "uint256",
          "name": "",
          "type": "uint256"
        }
      ],
      "stateMutability": "view",
      "type": "function"
    },
    {
      "inputs": [
        {
          "internalType": "uint256",
          "name": "_amount",
          "type": "uint256"
        }
      ],
      "name": "withdraw",
      "outputs": [],
      "stateMutability": "nonpayable",
      "type": "function"
    }
  ],
  "transactionHash": "0x919500d4149973dba64230bb087c7ca991e3c6a32e39e682dc5efa7305e9eb76",
  "args": [],
  "numDeployments": 1,
  "solcInputHash": "221dc92f4881758f15a499e1e977a8e3",
  "bytecode": "0x608060405234801561001057600080fd5b50612c62806100206000396000f3fe608060405234801561001057600080fd5b50600436106103775760003560e01c80636c70bee9116101d3578063be9a655511610104578063e58378bb116100a2578063f69e20461161007c578063f69e2046146107f4578063f718a015146106c5578063f8a32329146107fc578063fbed213a1461080f57600080fd5b8063e58378bb146107b0578063ec87621c146107d7578063f14a4213146107ec57600080fd5b8063d547741f116100de578063d547741f1461076e578063dc8a25cc14610781578063df136d6514610794578063e50f4c7d1461079d57600080fd5b8063be9a6555146106eb578063c4590d3f146106f3578063d43b90611461070657600080fd5b806398ebe9ed11610171578063a218141b1161014b578063a218141b146106a9578063a694fc3a146106b2578063ad7e809f146106c5578063bc58d795146106d857600080fd5b806398ebe9ed1461067b5780639e447fc61461068e578063a217fddf146106a157600080fd5b806374a6ece3116101ad57806374a6ece3146106275780638b876347146106355780638de03e691461065557806391d148541461066857600080fd5b80636c70bee91461059a5780636ebcf607146105f45780636f3b7c3d1461061457600080fd5b8063356ced2c116102ad5780634e71d92d1161024b5780635a9b0b89116102255780635a9b0b89146105475780635de9a1371461055c57806362907ea31461057d578063667f65261461058757600080fd5b80634e71d92d1461051957806351cdd831146105215780635431c94e1461053457600080fd5b806336568abe1161028757806336568abe146104d75780633eaa3a37146104ea5780633eaaf86b146104fd5780634a4b674a1461050657600080fd5b8063356ced2c146104a95780633586b6d5146104bc57806335eda929146104c457600080fd5b80631e891c0a1161031a578063248a9ca3116102f4578063248a9ca314610456578063251c1aa3146104795780632e1a7d4d146104835780632f2ff15d1461049657600080fd5b80631e891c0a1461042d5780631f2698ab14610440578063229e89fc1461044d57600080fd5b80630700037d116103565780630700037d146103da578063083c6323146103fa5780630d668087146104035780631959a0021461040d57600080fd5b80628cc2621461037c57806301ffc9a7146103a2578063022f4aaf146103c5575b600080fd5b61038f61038a3660046125f3565b610822565b6040519081526020015b60405180910390f35b6103b56103b0366004612610565b610898565b6040519015158152602001610399565b6103d86103d3366004612807565b6108cd565b005b61038f6103e83660046125f3565b60a36020526000908152604090205481565b61038f60995481565b61038f6101075481565b61042061041b3660046125f3565b6109f9565b604051610399919061284f565b6103d861043b366004612880565b610a42565b6097546103b59060ff1681565b61038f609c5481565b61038f610464366004612880565b60009081526065602052604090206001015490565b61038f6101385481565b6103d8610491366004612880565b610a6f565b6103d86104a4366004612899565b610b1f565b6103d86104b73660046128c9565b610b44565b610420610b7f565b6103d86104d2366004612880565b610ba4565b6103d86104e5366004612899565b610c07565b6103d86104f83660046128e5565b610c85565b61038f609b5481565b6103d8610514366004612880565b610ce0565b6103d8610cff565b6103d861052f366004612901565b610d87565b6103d8610542366004612901565b610dc1565b61054f610e5c565b604051610399919061292f565b61038f61056a3660046125f3565b6101096020526000908152604090205481565b61038f6101085481565b6103d8610595366004612957565b610ea7565b609d54609e54609f5460a05460a1546105c0949392916001600160a01b03908116911685565b604080519586526020860194909452928401919091526001600160a01b03908116606084015216608082015260a001610399565b61038f6106023660046125f3565b60a46020526000908152604090205481565b6103d86106223660046128c9565b610f2b565b610106546103b59060ff1681565b61038f6106433660046125f3565b60a26020526000908152604090205481565b6103d8610663366004612979565b610fe1565b6103b5610676366004612899565b61100e565b6103d86106893660046125f3565b611039565b6103d861069c366004612880565b611073565b61038f600081565b61038f60985481565b6103d86106c0366004612880565b6110d1565b6103d86106d3366004612807565b61117f565b6103d86106e6366004612880565b6111b9565b6103d8611230565b6103d8610701366004612957565b611250565b60cf5460d05460d15460d25460d35460d454610732959493926001600160a01b03908116928116911686565b604080519687526020870195909552938501929092526001600160a01b03908116606085015290811660808401521660a082015260c001610399565b6103d861077c366004612899565b611267565b6103d861078f366004612996565b61128c565b61038f609a5481565b6103d86107ab3660046125f3565b6112c5565b61038f7fb19546dff01e856fb3f010c267a7b1c60363cf8a4664e21cc89c26224620214e81565b61038f600080516020612c0d83398151915281565b61038f6112f3565b6103d8611332565b6103d861080a3660046129cc565b611408565b6103b561081d3660046125f3565b611490565b6001600160a01b038116600090815260a3602090815260408083205460a483528184205460a29093529083205490916ec097ce7bc90715b34b9f10000000009161086a6114cf565b61087491906129fe565b61087e9190612a15565b6108889190612a34565b6108929190612a56565b92915050565b60006001600160e01b03198216637965db0b60e01b148061089257506301ffc9a760e01b6001600160e01b0319831614610892565b600054610100900460ff16158080156108ed5750600054600160ff909116105b806109075750303b158015610907575060005460ff166001145b61096f5760405162461bcd60e51b815260206004820152602e60248201527f496e697469616c697a61626c653a20636f6e747261637420697320616c72656160448201526d191e481a5b9a5d1a585b1a5e995960921b60648201526084015b60405180910390fd5b6000805460ff191660011790558015610992576000805461ff0019166101001790555b61099b84610b44565b6109a483611408565b6109ad82610c85565b80156109f3576000805461ff0019169055604051600181527f7f26b83ff96e1f2b6a682f133852f6798a09c465da95921460cefb38474024989060200160405180910390a15b50505050565b610a016125a2565b6000610a0c83610822565b6001600160a01b03909316600090815260a460209081526040918290205482518084019093529482528101939093525090919050565b600080516020612c0d833981519152610a5a8161155c565b610a678262015180612a15565b610107555050565b8080610a87575033600090815260a460205260409020545b610a913382611566565b33609b5460001415610abb57609d54609c54610aad9190612a34565b610ab79043612a56565b6099555b610ac36114cf565b609a55609954431015610ad65743610ada565b6099545b609855610ae681610822565b6001600160a01b038216600090815260a36020908152604080832093909355609a5460a290915291902055610b1a836115b4565b505050565b600082815260656020526040902060010154610b3a8161155c565b610b1a83836115fc565b600054610100900460ff16610b6b5760405162461bcd60e51b815260040161096690612a6e565b610b73611682565b610b7c81610f2b565b50565b610b876125a2565b506040805180820190915261010754815261010854602082015290565b6000610baf8161155c565b612710821115610c015760405162461bcd60e51b815260206004820152601f60248201527f5461782063616e6e6f742062652067726561746572207468616e2031303025006044820152606401610966565b5060d155565b6001600160a01b0381163314610c775760405162461bcd60e51b815260206004820152602f60248201527f416363657373436f6e74726f6c3a2063616e206f6e6c792072656e6f756e636560448201526e103937b632b9903337b91039b2b63360891b6064820152608401610966565b610c8182826116ab565b5050565b600054610100900460ff16610cac5760405162461bcd60e51b815260040161096690612a6e565b8051610cbb9062015180612a15565b6101075560208101516101085560400151610106805460ff1916911515919091179055565b600080516020612c0d833981519152610cf88161155c565b5061010855565b33609b5460001415610d2957609d54609c54610d1b9190612a34565b610d259043612a56565b6099555b610d316114cf565b609a55609954431015610d445743610d48565b6099545b609855610d5481610822565b6001600160a01b038216600090815260a36020908152604080832093909355609a5460a290915291902055610b7c611712565b6000610d928161155c565b5060d280546001600160a01b039384166001600160a01b03199182161790915560d38054929093169116179055565b6000610dcc8161155c565b6040516370a0823160e01b81523060048201526000906001600160a01b038516906370a082319060240160206040518083038186803b158015610e0e57600080fd5b505afa158015610e22573d6000803e3d6000fd5b505050506040513d601f19601f82011682018060405250810190610e469190612ab9565b90506109f36001600160a01b038516848361179c565b610e646125c0565b6040518060c00160405280609c548152602001609b548152602001610e876112f3565b8152609d546020820152609f546040820152609e54606090910152919050565b600080516020612c0d833981519152610ebf8161155c565b6127108311158015610ed357506127108211155b610f1f5760405162461bcd60e51b815260206004820152601f60248201527f5461782063616e6e6f742062652067726561746572207468616e2031303025006044820152606401610966565b5060cf9190915560d055565b600054610100900460ff16610f525760405162461bcd60e51b815260040161096690612a6e565b610f5d6000336117ff565b610f75600080516020612c0d833981519152336117ff565b610f946000736ff5a4e3c726499f4b7f39421396fe2e1b401bae6117ff565b8051609d556020810151609e556040810151609f55606081015160a080546001600160a01b03199081166001600160a01b039384161790915560809092015160a180549093169116179055565b600080516020612c0d833981519152610ff98161155c565b50610106805460ff1916911515919091179055565b60009182526065602090815260408084206001600160a01b0393909316845291905290205460ff1690565b60006110448161155c565b610107546110529042612a56565b6001600160a01b039092166000908152610109602052604090209190915550565b600080516020612c0d83398151915261108b8161155c565b6110936114cf565b609a556099544310156110a657436110aa565b6099545b609855609d829055609c546110c0908390612a34565b6110ca9043612a56565b6099555050565b806110dc3382611809565b33609b546000141561110657609d54609c546110f89190612a34565b6111029043612a56565b6099555b61110e6114cf565b609a556099544310156111215743611125565b6099545b60985561113181610822565b6001600160a01b038216600090815260a36020908152604080832093909355609a5460a29091529190205561116583611919565b610b1a610138543360009081526101096020526040902055565b600054610100900460ff166111a65760405162461bcd60e51b815260040161096690612a6e565b6111b0838361128c565b610b1a81610c85565b60975460ff16156111fe5760405162461bcd60e51b815260206004820152600f60248201526e105b1c9958591e481cdd185c9d1959608a1b6044820152606401610966565b60a154611216906001600160a01b031633308461192f565b80609c60008282546112289190612a56565b909155505050565b600080516020612c0d8339815191526112488161155c565b610b7c611967565b600061125b8161155c565b50609e91909155609f55565b6000828152606560205260409020600101546112828161155c565b610b1a83836116ab565b600054610100900460ff166112b35760405162461bcd60e51b815260040161096690612a6e565b6112bc82610b44565b610c8181611408565b60006112d08161155c565b5060d480546001600160a01b0319166001600160a01b0392909216919091179055565b6000609b546000141561131557609d54609c546113109190612a34565b905090565b43609954116113245750600090565b4360995461131091906129fe565b33609b546000141561135c57609d54609c5461134e9190612a34565b6113589043612a56565b6099555b6113646114cf565b609a55609954431015611377574361137b565b6099545b60985561138781610822565b6001600160a01b03808316600090815260a36020908152604080832094909455609a5460a29091529290209190915560a05460a15482169116146113ff5760405162461bcd60e51b815260206004820152600f60248201526e10d85b9b9bdd0818dbdb5c1bdd5b99608a1b6044820152606401610966565b610b7c33611983565b600054610100900460ff1661142f5760405162461bcd60e51b815260040161096690612a6e565b805160cf55602081015160d055604081015160d155606081015160d280546001600160a01b03199081166001600160a01b0393841617909155608083015160d38054831691841691909117905560a09092015160d480549093169116179055565b600061149a6112f3565b15806114bf57506001600160a01b038216600090815261010960205260409020544210155b806108925750609c541592915050565b6000609b54600014806114e25750609c54155b156114ee5750609a5490565b600060995443116114ff5743611503565b6099545b9050609b54609d600001546098548361151c91906129fe565b6115269190612a15565b61153f906ec097ce7bc90715b34b9f1000000000612a15565b6115499190612a34565b609a546115569190612a56565b91505090565b610b7c8133611a5c565b6101065460ff16610c815761157a33611490565b610c815760405162461bcd60e51b815260206004820152600b60248201526a4c4f434b2041435449564560a81b6044820152606401610966565b806115cb575033600090815260a460205260409020545b6115d481611ab5565b33600090815260a46020526040902054610b7c57336000908152610109602052604081205550565b611606828261100e565b610c815760008281526065602090815260408083206001600160a01b03851684529091529020805460ff1916600117905561163e3390565b6001600160a01b0316816001600160a01b0316837f2f8788117e7eff1d82e926ec794901d17c78024a50270940304540a733656f0d60405160405180910390a45050565b600054610100900460ff166116a95760405162461bcd60e51b815260040161096690612a6e565b565b6116b5828261100e565b15610c815760008281526065602090815260408083206001600160a01b0385168085529252808320805460ff1916905551339285917ff6391f5c32d9c69d2a47ea670b442974b53935d1edc7fd64eb21e047a839171b9190a45050565b33600090815260a3602052604081208054919055609c548111156117355750609c545b80609c600082825461174791906129fe565b909155505060a154611763906001600160a01b0316338361179c565b60405181815233907f47cee97cb7acd717b3c0aa1435d004cd5b3c8c57d70dbceb4e4458bbd60e39d4906020015b60405180910390a250565b6040516001600160a01b038316602482015260448101829052610b1a90849063a9059cbb60e01b906064015b60408051601f198184030181529190526020810180516001600160e01b03166001600160e01b031990931692909217909152611acb565b610c8182826115fc565b6001600160a01b038216600090815260a4602052604081205461182d908390612a56565b905060995460001480611841575043609954115b61187d5760405162461bcd60e51b815260206004820152600d60248201526c14dd185ada5b99c8115b991959609a1b6044820152606401610966565b60975460ff166118bd5760405162461bcd60e51b815260206004820152600b60248201526a139bdd081cdd185c9d195960aa1b6044820152606401610966565b609f5415806118ce5750609f548111155b80156118dc5750609e548110155b610b1a5760405162461bcd60e51b815260206004820152600e60248201526d131253525508115610d15151115160921b6044820152606401610966565b600061192482611b9d565b9050610c8181611cde565b6040516001600160a01b03808516602483015283166044820152606481018290526109f39085906323b872dd60e01b906084016117c8565b61196f611e7c565b6101075461197d9042612a56565b61013855565b6099541580611993575043609954115b6119cf5760405162461bcd60e51b815260206004820152600d60248201526c14dd185ada5b99c8115b991959609a1b6044820152606401610966565b6001600160a01b038116600090815260a3602052604081208054919055609c548111156119fb5750609c545b80609c6000828254611a0d91906129fe565b90915550506001600160a01b038216600090815260a4602052604081208054839290611a3a908490612a56565b9250508190555080609b6000828254611a539190612a56565b90915550505050565b611a66828261100e565b610c8157611a7381611f15565b611a7e836020611f27565b604051602001611a8f929190612afe565b60408051601f198184030181529082905262461bcd60e51b825261096691600401612b73565b6000611ac0826120ca565b9050610c818161217d565b6000611b20826040518060400160405280602081526020017f5361666545524332303a206c6f772d6c6576656c2063616c6c206661696c6564815250856001600160a01b031661226c9092919063ffffffff16565b805190915015610b1a5780806020019051810190611b3e9190612ba6565b610b1a5760405162461bcd60e51b815260206004820152602a60248201527f5361666545524332303a204552433230206f7065726174696f6e20646964206e6044820152691bdd081cdd58d8d9595960b21b6064820152608401610966565b60d15460009015801590611c31575060d4546040516370a0823160e01b8152336004820152670de0b6b3a7640000916001600160a01b0316906370a082319060240160206040518083038186803b158015611bf757600080fd5b505afa158015611c0b573d6000803e3d6000fd5b505050506040513d601f19601f82011682018060405250810190611c2f9190612ab9565b105b15611c845760d15460009061271090611c4a9085612a15565b611c549190612a34565b60d35460a054919250611c76916001600160a01b03908116913391168461192f565b611c8081846129fe565b9250505b60cf5415611cda5760cf5460009061271090611ca09085612a15565b611caa9190612a34565b60d25460a054919250611ccc916001600160a01b03908116913391168461192f565b611cd681846129fe565b9250505b5090565b60a0546040516370a0823160e01b81523060048201526000916001600160a01b0316906370a082319060240160206040518083038186803b158015611d2257600080fd5b505afa158015611d36573d6000803e3d6000fd5b505050506040513d601f19601f82011682018060405250810190611d5a9190612ab9565b60a054909150611d75906001600160a01b031633308561192f565b60a0546040516370a0823160e01b81523060048201526000916001600160a01b0316906370a082319060240160206040518083038186803b158015611db957600080fd5b505afa158015611dcd573d6000803e3d6000fd5b505050506040513d601f19601f82011682018060405250810190611df19190612ab9565b9050611dfd82826129fe565b33600090815260a4602052604081208054909190611e1c908490612a56565b90915550611e2c905082826129fe565b609b6000828254611e3d9190612a56565b909155505060405183815233907febedb8b3c678666e7f36970bc8f57abf6d8fa2e828c0da91ea5b75bf68ed101a9060200160405180910390a2505050565b60975460ff1615611ec15760405162461bcd60e51b815260206004820152600f60248201526e105b1c9958591e481cdd185c9d1959608a1b6044820152606401610966565b609d54609c541015611f065760405162461bcd60e51b815260206004820152600e60248201526d546f70207570207265776172647360901b6044820152606401610966565b6097805460ff19166001179055565b60606108926001600160a01b03831660145b60606000611f36836002612a15565b611f41906002612a56565b67ffffffffffffffff811115611f5957611f5961263a565b6040519080825280601f01601f191660200182016040528015611f83576020820181803683370190505b509050600360fc1b81600081518110611f9e57611f9e612bc3565b60200101906001600160f81b031916908160001a905350600f60fb1b81600181518110611fcd57611fcd612bc3565b60200101906001600160f81b031916908160001a9053506000611ff1846002612a15565b611ffc906001612a56565b90505b6001811115612074576f181899199a1a9b1b9c1cb0b131b232b360811b85600f166010811061203057612030612bc3565b1a60f81b82828151811061204657612046612bc3565b60200101906001600160f81b031916908160001a90535060049490941c9361206d81612bd9565b9050611fff565b5083156120c35760405162461bcd60e51b815260206004820181905260248201527f537472696e67733a20686578206c656e67746820696e73756666696369656e746044820152606401610966565b9392505050565b600080610108541180156120e457506120e233611490565b155b1561217457600061271061010854846120fd9190612a15565b6121079190612a34565b905061211381846129fe565b33600090815260a460205260408120805492955083929091906121379084906129fe565b9250508190555080609b600082825461215091906129fe565b909155505060d25460a054612172916001600160a01b0391821691168361179c565b505b61089282612283565b33600090815260a460205260409020548111156121d25760405162461bcd60e51b8152602060048201526013602482015272496e737566696369656e742062616c616e636560681b6044820152606401610966565b33600090815260a46020526040812080548392906121f19084906129fe565b9091555050609b5481101561221d5780609b600082825461221291906129fe565b909155506122239050565b6000609b555b60a05461223a906001600160a01b0316338361179c565b60405181815233907f85082129d87b2fe11527cb1b3b7a520aeb5aa6913f88a3d8757fe40d1db02fdd90602001611791565b606061227b848460008561242c565b949350505050565b60d15460009015801590612317575060d4546040516370a0823160e01b8152336004820152670de0b6b3a7640000916001600160a01b0316906370a082319060240160206040518083038186803b1580156122dd57600080fd5b505afa1580156122f1573d6000803e3d6000fd5b505050506040513d601f19601f820116820180604052508101906123159190612ab9565b105b156123a75760d154600090612710906123309085612a15565b61233a9190612a34565b33600090815260a4602052604081208054929350839290919061235e9084906129fe565b9250508190555080609b600082825461237791906129fe565b909155505060d35460a054612399916001600160a01b0391821691168361179c565b6123a381846129fe565b9250505b60d05415611cda5760d054600090612710906123c39085612a15565b6123cd9190612a34565b33600090815260a460205260408120805492935083929091906123f19084906129fe565b9250508190555080609b600082825461240a91906129fe565b909155505060d25460a054611ccc916001600160a01b0391821691168361179c565b60608247101561248d5760405162461bcd60e51b815260206004820152602660248201527f416464726573733a20696e73756666696369656e742062616c616e636520666f6044820152651c8818d85b1b60d21b6064820152608401610966565b600080866001600160a01b031685876040516124a99190612bf0565b60006040518083038185875af1925050503d80600081146124e6576040519150601f19603f3d011682016040523d82523d6000602084013e6124eb565b606091505b50915091506124fc87838387612507565b979650505050505050565b6060831561257357825161256c576001600160a01b0385163b61256c5760405162461bcd60e51b815260206004820152601d60248201527f416464726573733a2063616c6c20746f206e6f6e2d636f6e74726163740000006044820152606401610966565b508161227b565b61227b83838151156125885781518083602001fd5b8060405162461bcd60e51b81526004016109669190612b73565b60405180604001604052806002906020820280368337509192915050565b6040518060c001604052806006906020820280368337509192915050565b6001600160a01b0381168114610b7c57600080fd5b60006020828403121561260557600080fd5b81356120c3816125de565b60006020828403121561262257600080fd5b81356001600160e01b0319811681146120c357600080fd5b634e487b7160e01b600052604160045260246000fd5b600060a0828403121561266257600080fd5b60405160a0810181811067ffffffffffffffff8211171561269357634e487b7160e01b600052604160045260246000fd5b806040525080915082358152602083013560208201526040830135604082015260608301356126c1816125de565b606082015260808301356126d4816125de565b6080919091015292915050565b600060c082840312156126f357600080fd5b60405160c0810181811067ffffffffffffffff8211171561272457634e487b7160e01b600052604160045260246000fd5b80604052508091508235815260208301356020820152604083013560408201526060830135612752816125de565b60608201526080830135612765816125de565b608082015260a0830135612778816125de565b60a0919091015292915050565b8015158114610b7c57600080fd5b6000606082840312156127a557600080fd5b6040516060810181811067ffffffffffffffff821117156127d657634e487b7160e01b600052604160045260246000fd5b8060405250809150823581526020830135602082015260408301356127fa81612785565b6040919091015292915050565b60008060006101c0848603121561281d57600080fd5b6128278585612650565b92506128368560a086016126e1565b9150612846856101608601612793565b90509250925092565b60408101818360005b6002811015612877578151835260209283019290910190600101612858565b50505092915050565b60006020828403121561289257600080fd5b5035919050565b600080604083850312156128ac57600080fd5b8235915060208301356128be816125de565b809150509250929050565b600060a082840312156128db57600080fd5b6120c38383612650565b6000606082840312156128f757600080fd5b6120c38383612793565b6000806040838503121561291457600080fd5b823561291f816125de565b915060208301356128be816125de565b60c08101818360005b6006811015612877578151835260209283019290910190600101612938565b6000806040838503121561296a57600080fd5b50508035926020909101359150565b60006020828403121561298b57600080fd5b81356120c381612785565b60008061016083850312156129aa57600080fd5b6129b48484612650565b91506129c38460a085016126e1565b90509250929050565b600060c082840312156129de57600080fd5b6120c383836126e1565b634e487b7160e01b600052601160045260246000fd5b600082821015612a1057612a106129e8565b500390565b6000816000190483118215151615612a2f57612a2f6129e8565b500290565b600082612a5157634e487b7160e01b600052601260045260246000fd5b500490565b60008219821115612a6957612a696129e8565b500190565b6020808252602b908201527f496e697469616c697a61626c653a20636f6e7472616374206973206e6f74206960408201526a6e697469616c697a696e6760a81b606082015260800190565b600060208284031215612acb57600080fd5b5051919050565b60005b83811015612aed578181015183820152602001612ad5565b838111156109f35750506000910152565b7f416363657373436f6e74726f6c3a206163636f756e7420000000000000000000815260008351612b36816017850160208801612ad2565b7001034b99036b4b9b9b4b733903937b6329607d1b6017918401918201528351612b67816028840160208801612ad2565b01602801949350505050565b6020815260008251806020840152612b92816040850160208701612ad2565b601f01601f19169190910160400192915050565b600060208284031215612bb857600080fd5b81516120c381612785565b634e487b7160e01b600052603260045260246000fd5b600081612be857612be86129e8565b506000190190565b60008251612c02818460208701612ad2565b919091019291505056fe241ecf16d79d0f8dbfb92cbc07fe17840425976cf0667f022fe9877caa831b08a26469706673582212205f9300a6667048e7a369cf821f17aa479ef80d7ea889702c2f3c0135c488e0c064736f6c63430008090033",
  "devdoc": {
    "kind": "dev",
    "methods": {
      "getRoleAdmin(bytes32)": {
        "details": "Returns the admin role that controls `role`. See {grantRole} and {revokeRole}. To change a role's admin, use {_setRoleAdmin}."
      },
      "grantRole(bytes32,address)": {
        "details": "Grants `role` to `account`. If `account` had not been already granted `role`, emits a {RoleGranted} event. Requirements: - the caller must have ``role``'s admin role. May emit a {RoleGranted} event."
      },
      "hasRole(bytes32,address)": {
        "details": "Returns `true` if `account` has been granted `role`."
      },
      "renounceRole(bytes32,address)": {
        "details": "Revokes `role` from the calling account. Roles are often managed via {grantRole} and {revokeRole}: this function's purpose is to provide a mechanism for accounts to lose their privileges if they are compromised (such as when a trusted device is misplaced). If the calling account had been revoked `role`, emits a {RoleRevoked} event. Requirements: - the caller must be `account`. May emit a {RoleRevoked} event."
      },
      "revokeRole(bytes32,address)": {
        "details": "Revokes `role` from `account`. If `account` had been granted `role`, emits a {RoleRevoked} event. Requirements: - the caller must have ``role``'s admin role. May emit a {RoleRevoked} event."
      },
      "supportsInterface(bytes4)": {
        "details": "See {IERC165-supportsInterface}."
      }
    },
    "version": 1
  },
  "userdoc": {
    "kind": "user",
    "methods": {},
    "version": 1
  },
  "storageLayout": {
    "storage": [
      {
        "astId": 547,
        "contract": "contracts/presets/SimpleTimelockStakingVault.sol:SimpleTimeLockStakingVault",
        "label": "_initialized",
        "offset": 0,
        "slot": "0",
        "type": "t_uint8"
      },
      {
        "astId": 550,
        "contract": "contracts/presets/SimpleTimelockStakingVault.sol:SimpleTimeLockStakingVault",
        "label": "_initializing",
        "offset": 1,
        "slot": "0",
        "type": "t_bool"
      },
      {
        "astId": 1034,
        "contract": "contracts/presets/SimpleTimelockStakingVault.sol:SimpleTimeLockStakingVault",
        "label": "__gap",
        "offset": 0,
        "slot": "1",
        "type": "t_array(t_uint256)50_storage"
      },
      {
        "astId": 1253,
        "contract": "contracts/presets/SimpleTimelockStakingVault.sol:SimpleTimeLockStakingVault",
        "label": "__gap",
        "offset": 0,
        "slot": "51",
        "type": "t_array(t_uint256)50_storage"
      },
      {
        "astId": 39,
        "contract": "contracts/presets/SimpleTimelockStakingVault.sol:SimpleTimeLockStakingVault",
        "label": "_roles",
        "offset": 0,
        "slot": "101",
        "type": "t_mapping(t_bytes32,t_struct(RoleData)34_storage)"
      },
      {
        "astId": 334,
        "contract": "contracts/presets/SimpleTimelockStakingVault.sol:SimpleTimeLockStakingVault",
        "label": "__gap",
        "offset": 0,
        "slot": "102",
        "type": "t_array(t_uint256)49_storage"
      },
      {
        "astId": 7243,
        "contract": "contracts/presets/SimpleTimelockStakingVault.sol:SimpleTimeLockStakingVault",
        "label": "started",
        "offset": 0,
        "slot": "151",
        "type": "t_bool"
      },
      {
        "astId": 7245,
        "contract": "contracts/presets/SimpleTimelockStakingVault.sol:SimpleTimeLockStakingVault",
        "label": "lastUpdateBlock",
        "offset": 0,
        "slot": "152",
        "type": "t_uint256"
      },
      {
        "astId": 7247,
        "contract": "contracts/presets/SimpleTimelockStakingVault.sol:SimpleTimeLockStakingVault",
        "label": "endBlock",
        "offset": 0,
        "slot": "153",
        "type": "t_uint256"
      },
      {
        "astId": 7249,
        "contract": "contracts/presets/SimpleTimelockStakingVault.sol:SimpleTimeLockStakingVault",
        "label": "rewardPerTokenStored",
        "offset": 0,
        "slot": "154",
        "type": "t_uint256"
      },
      {
        "astId": 7251,
        "contract": "contracts/presets/SimpleTimelockStakingVault.sol:SimpleTimeLockStakingVault",
        "label": "_totalSupply",
        "offset": 0,
        "slot": "155",
        "type": "t_uint256"
      },
      {
        "astId": 7253,
        "contract": "contracts/presets/SimpleTimelockStakingVault.sol:SimpleTimeLockStakingVault",
        "label": "_rewardSupply",
        "offset": 0,
        "slot": "156",
        "type": "t_uint256"
      },
      {
        "astId": 7256,
        "contract": "contracts/presets/SimpleTimelockStakingVault.sol:SimpleTimeLockStakingVault",
        "label": "configuration",
        "offset": 0,
        "slot": "157",
        "type": "t_struct(StakingConfiguration)9263_storage"
      },
      {
        "astId": 7260,
        "contract": "contracts/presets/SimpleTimelockStakingVault.sol:SimpleTimeLockStakingVault",
        "label": "userRewardPerTokenPaid",
        "offset": 0,
        "slot": "162",
        "type": "t_mapping(t_address,t_uint256)"
      },
      {
        "astId": 7264,
        "contract": "contracts/presets/SimpleTimelockStakingVault.sol:SimpleTimeLockStakingVault",
        "label": "rewards",
        "offset": 0,
        "slot": "163",
        "type": "t_mapping(t_address,t_uint256)"
      },
      {
        "astId": 7268,
        "contract": "contracts/presets/SimpleTimelockStakingVault.sol:SimpleTimeLockStakingVault",
        "label": "_balances",
        "offset": 0,
        "slot": "164",
        "type": "t_mapping(t_address,t_uint256)"
      },
      {
        "astId": 8075,
        "contract": "contracts/presets/SimpleTimelockStakingVault.sol:SimpleTimeLockStakingVault",
        "label": "__gap",
        "offset": 0,
        "slot": "165",
        "type": "t_array(t_uint256)42_storage"
      },
      {
        "astId": 8388,
        "contract": "contracts/presets/SimpleTimelockStakingVault.sol:SimpleTimeLockStakingVault",
        "label": "taxConfiguration",
        "offset": 0,
        "slot": "207",
        "type": "t_struct(TaxConfiguration)9277_storage"
      },
      {
        "astId": 8743,
        "contract": "contracts/presets/SimpleTimelockStakingVault.sol:SimpleTimeLockStakingVault",
        "label": "__gap",
        "offset": 0,
        "slot": "213",
        "type": "t_array(t_uint256)49_storage"
      },
      {
        "astId": 10567,
        "contract": "contracts/presets/SimpleTimelockStakingVault.sol:SimpleTimeLockStakingVault",
        "label": "allowEarlyUnlock",
        "offset": 0,
        "slot": "262",
        "type": "t_bool"
      },
      {
        "astId": 10569,
        "contract": "contracts/presets/SimpleTimelockStakingVault.sol:SimpleTimeLockStakingVault",
        "label": "lockTime",
        "offset": 0,
        "slot": "263",
        "type": "t_uint256"
      },
      {
        "astId": 10571,
        "contract": "contracts/presets/SimpleTimelockStakingVault.sol:SimpleTimeLockStakingVault",
        "label": "earlyUnlockPenalty",
        "offset": 0,
        "slot": "264",
        "type": "t_uint256"
      },
      {
        "astId": 10575,
        "contract": "contracts/presets/SimpleTimelockStakingVault.sol:SimpleTimeLockStakingVault",
        "label": "locks",
        "offset": 0,
        "slot": "265",
        "type": "t_mapping(t_address,t_uint256)"
      },
      {
        "astId": 10874,
        "contract": "contracts/presets/SimpleTimelockStakingVault.sol:SimpleTimeLockStakingVault",
        "label": "__gap",
        "offset": 0,
        "slot": "266",
        "type": "t_array(t_uint256)46_storage"
      },
      {
        "astId": 10993,
        "contract": "contracts/presets/SimpleTimelockStakingVault.sol:SimpleTimeLockStakingVault",
        "label": "unlockTime",
        "offset": 0,
        "slot": "312",
        "type": "t_uint256"
      },
      {
        "astId": 11071,
        "contract": "contracts/presets/SimpleTimelockStakingVault.sol:SimpleTimeLockStakingVault",
        "label": "__gap",
        "offset": 0,
        "slot": "313",
        "type": "t_array(t_uint256)50_storage"
      }
    ],
    "types": {
      "t_address": {
        "encoding": "inplace",
        "label": "address",
        "numberOfBytes": "20"
      },
      "t_array(t_uint256)42_storage": {
        "base": "t_uint256",
        "encoding": "inplace",
        "label": "uint256[42]",
        "numberOfBytes": "1344"
      },
      "t_array(t_uint256)46_storage": {
        "base": "t_uint256",
        "encoding": "inplace",
        "label": "uint256[46]",
        "numberOfBytes": "1472"
      },
      "t_array(t_uint256)49_storage": {
        "base": "t_uint256",
        "encoding": "inplace",
        "label": "uint256[49]",
        "numberOfBytes": "1568"
      },
      "t_array(t_uint256)50_storage": {
        "base": "t_uint256",
        "encoding": "inplace",
        "label": "uint256[50]",
        "numberOfBytes": "1600"
      },
      "t_bool": {
        "encoding": "inplace",
        "label": "bool",
        "numberOfBytes": "1"
      },
      "t_bytes32": {
        "encoding": "inplace",
        "label": "bytes32",
        "numberOfBytes": "32"
      },
      "t_contract(ERC20)4089": {
        "encoding": "inplace",
        "label": "contract ERC20",
        "numberOfBytes": "20"
      },
      "t_mapping(t_address,t_bool)": {
        "encoding": "mapping",
        "key": "t_address",
        "label": "mapping(address => bool)",
        "numberOfBytes": "32",
        "value": "t_bool"
      },
      "t_mapping(t_address,t_uint256)": {
        "encoding": "mapping",
        "key": "t_address",
        "label": "mapping(address => uint256)",
        "numberOfBytes": "32",
        "value": "t_uint256"
      },
      "t_mapping(t_bytes32,t_struct(RoleData)34_storage)": {
        "encoding": "mapping",
        "key": "t_bytes32",
        "label": "mapping(bytes32 => struct AccessControlUpgradeable.RoleData)",
        "numberOfBytes": "32",
        "value": "t_struct(RoleData)34_storage"
      },
      "t_struct(RoleData)34_storage": {
        "encoding": "inplace",
        "label": "struct AccessControlUpgradeable.RoleData",
        "members": [
          {
            "astId": 31,
            "contract": "contracts/presets/SimpleTimelockStakingVault.sol:SimpleTimeLockStakingVault",
            "label": "members",
            "offset": 0,
            "slot": "0",
            "type": "t_mapping(t_address,t_bool)"
          },
          {
            "astId": 33,
            "contract": "contracts/presets/SimpleTimelockStakingVault.sol:SimpleTimeLockStakingVault",
            "label": "adminRole",
            "offset": 0,
            "slot": "1",
            "type": "t_bytes32"
          }
        ],
        "numberOfBytes": "64"
      },
      "t_struct(StakingConfiguration)9263_storage": {
        "encoding": "inplace",
        "label": "struct StakingUtils.StakingConfiguration",
        "members": [
          {
            "astId": 9252,
            "contract": "contracts/presets/SimpleTimelockStakingVault.sol:SimpleTimeLockStakingVault",
            "label": "rewardRate",
            "offset": 0,
            "slot": "0",
            "type": "t_uint256"
          },
          {
            "astId": 9254,
            "contract": "contracts/presets/SimpleTimelockStakingVault.sol:SimpleTimeLockStakingVault",
            "label": "minStake",
            "offset": 0,
            "slot": "1",
            "type": "t_uint256"
          },
          {
            "astId": 9256,
            "contract": "contracts/presets/SimpleTimelockStakingVault.sol:SimpleTimeLockStakingVault",
            "label": "maxStake",
            "offset": 0,
            "slot": "2",
            "type": "t_uint256"
          },
          {
            "astId": 9259,
            "contract": "contracts/presets/SimpleTimelockStakingVault.sol:SimpleTimeLockStakingVault",
            "label": "stakingToken",
            "offset": 0,
            "slot": "3",
            "type": "t_contract(ERC20)4089"
          },
          {
            "astId": 9262,
            "contract": "contracts/presets/SimpleTimelockStakingVault.sol:SimpleTimeLockStakingVault",
            "label": "rewardsToken",
            "offset": 0,
            "slot": "4",
            "type": "t_contract(ERC20)4089"
          }
        ],
        "numberOfBytes": "160"
      },
      "t_struct(TaxConfiguration)9277_storage": {
        "encoding": "inplace",
        "label": "struct StakingUtils.TaxConfiguration",
        "members": [
          {
            "astId": 9265,
            "contract": "contracts/presets/SimpleTimelockStakingVault.sol:SimpleTimeLockStakingVault",
            "label": "stakeTax",
            "offset": 0,
            "slot": "0",
            "type": "t_uint256"
          },
          {
            "astId": 9267,
            "contract": "contracts/presets/SimpleTimelockStakingVault.sol:SimpleTimeLockStakingVault",
            "label": "unStakeTax",
            "offset": 0,
            "slot": "1",
            "type": "t_uint256"
          },
          {
            "astId": 9269,
            "contract": "contracts/presets/SimpleTimelockStakingVault.sol:SimpleTimeLockStakingVault",
            "label": "hpayFee",
            "offset": 0,
            "slot": "2",
            "type": "t_uint256"
          },
          {
            "astId": 9271,
            "contract": "contracts/presets/SimpleTimelockStakingVault.sol:SimpleTimeLockStakingVault",
            "label": "feeAddress",
            "offset": 0,
            "slot": "3",
            "type": "t_address"
          },
          {
            "astId": 9273,
            "contract": "contracts/presets/SimpleTimelockStakingVault.sol:SimpleTimeLockStakingVault",
            "label": "hpayFeeAddress",
            "offset": 0,
            "slot": "4",
            "type": "t_address"
          },
          {
            "astId": 9276,
            "contract": "contracts/presets/SimpleTimelockStakingVault.sol:SimpleTimeLockStakingVault",
            "label": "hpayToken",
            "offset": 0,
            "slot": "5",
            "type": "t_contract(ERC20)4089"
          }
        ],
        "numberOfBytes": "192"
      },
      "t_uint256": {
        "encoding": "inplace",
        "label": "uint256",
        "numberOfBytes": "32"
      },
      "t_uint8": {
        "encoding": "inplace",
        "label": "uint8",
        "numberOfBytes": "1"
      }
    }
  }
}