{
  "address": "0x507925c886aA77C83E725fC5a89Fd70fEEd3262f",
  "abi": [
    {
      "inputs": [
        {
          "internalType": "address",
          "name": "_defaultAdmin",
          "type": "address"
        }
      ],
      "stateMutability": "nonpayable",
      "type": "constructor"
    },
    {
      "anonymous": false,
      "inputs": [
        {
          "indexed": false,
          "internalType": "uint8",
          "name": "version",
          "type": "uint8"
        }
      ],
      "name": "Initialized",
      "type": "event"
    },
    {
      "anonymous": false,
      "inputs": [
        {
          "indexed": true,
          "internalType": "address",
          "name": "previousOwner",
          "type": "address"
        },
        {
          "indexed": true,
          "internalType": "address",
          "name": "newOwner",
          "type": "address"
        }
      ],
      "name": "OwnershipTransferred",
      "type": "event"
    },
    {
      "anonymous": false,
      "inputs": [
        {
          "indexed": false,
          "internalType": "address",
          "name": "owner",
          "type": "address"
        },
        {
          "indexed": false,
          "internalType": "address",
          "name": "newVaultAddress",
          "type": "address"
        }
      ],
      "name": "VaultCreated",
      "type": "event"
    },
    {
      "inputs": [],
      "name": "admin",
      "outputs": [
        {
          "internalType": "address",
          "name": "",
          "type": "address"
        }
      ],
      "stateMutability": "view",
      "type": "function"
    },
    {
      "inputs": [],
      "name": "beacon",
      "outputs": [
        {
          "internalType": "contract VaultBeacon",
          "name": "",
          "type": "address"
        }
      ],
      "stateMutability": "view",
      "type": "function"
    },
    {
      "inputs": [
        {
          "components": [
            {
              "internalType": "uint256",
              "name": "rewardRate",
              "type": "uint256"
            },
            {
              "internalType": "uint256",
              "name": "minStake",
              "type": "uint256"
            },
            {
              "internalType": "uint256",
              "name": "maxStake",
              "type": "uint256"
            },
            {
              "internalType": "contract ERC20",
              "name": "stakingToken",
              "type": "address"
            },
            {
              "internalType": "contract ERC20",
              "name": "rewardsToken",
              "type": "address"
            }
          ],
          "internalType": "struct StakingUtils.StakingConfiguration",
          "name": "config",
          "type": "tuple"
        },
        {
          "components": [
            {
              "internalType": "uint256",
              "name": "stakeTax",
              "type": "uint256"
            },
            {
              "internalType": "uint256",
              "name": "unStakeTax",
              "type": "uint256"
            },
            {
              "internalType": "uint256",
              "name": "hpayFee",
              "type": "uint256"
            },
            {
              "internalType": "address",
              "name": "feeAddress",
              "type": "address"
            },
            {
              "internalType": "address",
              "name": "hpayFeeAddress",
              "type": "address"
            },
            {
              "internalType": "contract ERC20",
              "name": "hpayToken",
              "type": "address"
            }
          ],
          "internalType": "struct StakingUtils.TaxConfiguration",
          "name": "taxConfig",
          "type": "tuple"
        },
        {
          "components": [
            {
              "internalType": "uint256",
              "name": "lockTime",
              "type": "uint256"
            },
            {
              "internalType": "uint256",
              "name": "earlyUnlockPenalty",
              "type": "uint256"
            },
            {
              "internalType": "bool",
              "name": "allowEarlyUnlock",
              "type": "bool"
            }
          ],
          "internalType": "struct StakingUtils.LockConfiguration",
          "name": "lockConfig",
          "type": "tuple"
        }
      ],
      "name": "create",
      "outputs": [],
      "stateMutability": "payable",
      "type": "function"
    },
    {
      "inputs": [],
      "name": "emergencyTax",
      "outputs": [
        {
          "internalType": "uint256",
          "name": "",
          "type": "uint256"
        }
      ],
      "stateMutability": "view",
      "type": "function"
    },
    {
      "inputs": [
        {
          "internalType": "uint32",
          "name": "startingIndex",
          "type": "uint32"
        },
        {
          "internalType": "uint256",
          "name": "length",
          "type": "uint256"
        }
      ],
      "name": "getAll",
      "outputs": [
        {
          "internalType": "address[]",
          "name": "",
          "type": "address[]"
        }
      ],
      "stateMutability": "view",
      "type": "function"
    },
    {
      "inputs": [],
      "name": "getBeacon",
      "outputs": [
        {
          "internalType": "address",
          "name": "",
          "type": "address"
        }
      ],
      "stateMutability": "view",
      "type": "function"
    },
    {
      "inputs": [],
      "name": "getImplementation",
      "outputs": [
        {
          "internalType": "address",
          "name": "",
          "type": "address"
        }
      ],
      "stateMutability": "view",
      "type": "function"
    },
    {
      "inputs": [
        {
          "internalType": "uint32",
          "name": "_index",
          "type": "uint32"
        }
      ],
      "name": "getVaultAt",
      "outputs": [
        {
          "internalType": "address",
          "name": "",
          "type": "address"
        }
      ],
      "stateMutability": "view",
      "type": "function"
    },
    {
      "inputs": [
        {
          "internalType": "address",
          "name": "_addr",
          "type": "address"
        }
      ],
      "name": "hasVault",
      "outputs": [
        {
          "internalType": "bool",
          "name": "",
          "type": "bool"
        }
      ],
      "stateMutability": "view",
      "type": "function"
    },
    {
      "inputs": [
        {
          "internalType": "address",
          "name": "_initBlueprint",
          "type": "address"
        },
        {
          "internalType": "address",
          "name": "_serviceFeeAddress",
          "type": "address"
        }
      ],
      "name": "initialize",
      "outputs": [],
      "stateMutability": "nonpayable",
      "type": "function"
    },
    {
      "inputs": [],
      "name": "owner",
      "outputs": [
        {
          "internalType": "address",
          "name": "",
          "type": "address"
        }
      ],
      "stateMutability": "view",
      "type": "function"
    },
    {
      "inputs": [],
      "name": "renounceOwnership",
      "outputs": [],
      "stateMutability": "nonpayable",
      "type": "function"
    },
    {
      "inputs": [],
      "name": "serviceFee",
      "outputs": [
        {
          "internalType": "uint256",
          "name": "",
          "type": "uint256"
        }
      ],
      "stateMutability": "view",
      "type": "function"
    },
    {
      "inputs": [],
      "name": "serviceFeeAddress",
      "outputs": [
        {
          "internalType": "address",
          "name": "",
          "type": "address"
        }
      ],
      "stateMutability": "view",
      "type": "function"
    },
    {
      "inputs": [
        {
          "internalType": "address",
          "name": "_addr",
          "type": "address"
        }
      ],
      "name": "setServiceFeeAddress",
      "outputs": [],
      "stateMutability": "nonpayable",
      "type": "function"
    },
    {
      "inputs": [
        {
          "internalType": "uint256",
          "name": "_tax",
          "type": "uint256"
        }
      ],
      "name": "setServiceTax",
      "outputs": [],
      "stateMutability": "nonpayable",
      "type": "function"
    },
    {
      "inputs": [
        {
          "internalType": "uint256",
          "name": "_tax",
          "type": "uint256"
        }
      ],
      "name": "setTax",
      "outputs": [],
      "stateMutability": "nonpayable",
      "type": "function"
    },
    {
      "inputs": [],
      "name": "tax",
      "outputs": [
        {
          "internalType": "uint256",
          "name": "",
          "type": "uint256"
        }
      ],
      "stateMutability": "view",
      "type": "function"
    },
    {
      "inputs": [],
      "name": "totalVaults",
      "outputs": [
        {
          "internalType": "uint256",
          "name": "",
          "type": "uint256"
        }
      ],
      "stateMutability": "view",
      "type": "function"
    },
    {
      "inputs": [
        {
          "internalType": "address",
          "name": "newOwner",
          "type": "address"
        }
      ],
      "name": "transferOwnership",
      "outputs": [],
      "stateMutability": "nonpayable",
      "type": "function"
    },
    {
      "inputs": [],
      "name": "version",
      "outputs": [
        {
          "internalType": "uint256",
          "name": "",
          "type": "uint256"
        }
      ],
      "stateMutability": "pure",
      "type": "function"
    }
  ],
  "transactionHash": "0x06a15a29ca5e4ed501d4d4ef43aae9fc8beb10b1e08f104199965bfe1a2760a4",
  "args": [
    "0xe51eBb02ca50De882566CBb7EaF3Fb8041940C29"
  ],
  "numDeployments": 1,
  "solcInputHash": "221dc92f4881758f15a499e1e977a8e3",
  "bytecode": "0x608060405234801561001057600080fd5b50604051612a78380380612a7883398101604081905261002f91610054565b606780546001600160a01b0319166001600160a01b0392909216919091179055610084565b60006020828403121561006657600080fd5b81516001600160a01b038116811461007d57600080fd5b9392505050565b6129e5806100936000396000f3fe608060405260043610620001435760003560e01c80638abdf5aa11620000b9578063ae38a8b91162000078578063ae38a8b91462000343578063c8e2ef581462000365578063d9abe29d146200037c578063ebdb6a6e14620003a1578063f2fde38b14620003d5578063f851a44014620003fa57600080fd5b80638abdf5aa14620002c35780638d65402314620002db5780638da5cb5b14620002f357806399c8d5561462000313578063aaf10f42146200032b57600080fd5b80633da1d71611620001065780633da1d7161462000229578063485cc955146200024e57806354fd4d50146200027357806359659e901462000289578063715018a614620002ab57600080fd5b80630d453efb146200014857806310d480ba14620001825780632993ea5114620001a95780632d6b3a6b14620001d05780632e5bb6ff1462000204575b600080fd5b3480156200015557600080fd5b506200016d62000167366004620010ef565b6200041c565b60405190151581526020015b60405180910390f35b3480156200018f57600080fd5b50620001a7620001a13660046200110f565b62000431565b005b348015620001b657600080fd5b50620001c1606c5481565b60405190815260200162000179565b348015620001dd57600080fd5b506069546001600160a01b03165b6040516001600160a01b03909116815260200162000179565b3480156200021157600080fd5b50620001a7620002233660046200110f565b62000440565b3480156200023657600080fd5b50620001a762000248366004620010ef565b6200044f565b3480156200025b57600080fd5b50620001a76200026d36600462001129565b6200047b565b3480156200028057600080fd5b506001620001c1565b3480156200029657600080fd5b50606954620001eb906001600160a01b031681565b348015620002b857600080fd5b50620001a762000618565b348015620002d057600080fd5b50620001c1606b5481565b348015620002e857600080fd5b50620001c162000630565b3480156200030057600080fd5b506033546001600160a01b0316620001eb565b3480156200032057600080fd5b50620001c1606a5481565b3480156200033857600080fd5b50620001eb62000643565b3480156200035057600080fd5b50606854620001eb906001600160a01b031681565b620001a76200037636600462001263565b620006c4565b3480156200038957600080fd5b50620001eb6200039b36600462001388565b62000d2a565b348015620003ae57600080fd5b50620003c6620003c0366004620013a6565b62000d42565b604051620001799190620013d3565b348015620003e257600080fd5b50620001a7620003f4366004620010ef565b62000e42565b3480156200040757600080fd5b50606754620001eb906001600160a01b031681565b60006200042b60658362000ec1565b92915050565b6200043b62000ee6565b606b55565b6200044a62000ee6565b606a55565b6200045962000ee6565b606880546001600160a01b0319166001600160a01b0392909216919091179055565b600054610100900460ff16158080156200049c5750600054600160ff909116105b80620004b85750303b158015620004b8575060005460ff166001145b620005215760405162461bcd60e51b815260206004820152602e60248201527f496e697469616c697a61626c653a20636f6e747261637420697320616c72656160448201526d191e481a5b9a5d1a585b1a5e995960921b60648201526084015b60405180910390fd5b6000805460ff19166001179055801562000545576000805461ff0019166101001790555b6200054f62000f42565b826040516200055e90620010bd565b6001600160a01b039091168152602001604051809103906000f0801580156200058b573d6000803e3d6000fd5b50606980546001600160a01b03199081166001600160a01b039384161790915560688054909116918416919091179055670de0b6b3a7640000606a55600a606b55801562000613576000805461ff0019169055604051600181527f7f26b83ff96e1f2b6a682f133852f6798a09c465da95921460cefb38474024989060200160405180910390a15b505050565b6200062262000ee6565b6200062e600062000f76565b565b60006200063e606562000fc8565b905090565b60695460408051635c60da1b60e01b815290516000926001600160a01b031691635c60da1b916004808301926020929190829003018186803b1580156200068957600080fd5b505afa1580156200069e573d6000803e3d6000fd5b505050506040513d601f19601f820116820180604052508101906200063e919062001422565b606a54341015620006fe5760405162461bcd60e51b81526020600482015260036024820152620e8c2f60eb1b604482015260640162000518565b6068546040516001600160a01b03909116904780156108fc02916000818181858888f1935050505015801562000738573d6000803e3d6000fd5b50600060408381018281526068546001600160a01b03908116608080880191825260695485518a5160248201526020808c015160448301528b88015160648301526060808d015187166084840152938c0151861660a48301528a5160c4830152808b015160e483015295516101048201529189015184166101248301529151831661014482015260a088015183166101648201528651610184820152868401516101a48201528685015115156101c480830191909152855180830390910181526101e4909101855292830180516001600160e01b031663022f4aaf60e01b17905292519216916200082990620010cb565b6200083692919062001442565b604051809103906000f08015801562000853573d6000803e3d6000fd5b509050620008618162000fd3565b6000819050806001600160a01b0316632f2ff15d826001600160a01b031663e58378bb6040518163ffffffff1660e01b815260040160206040518083038186803b158015620008af57600080fd5b505afa158015620008c4573d6000803e3d6000fd5b505050506040513d601f19601f82011682018060405250810190620008ea9190620014aa565b6040516001600160e01b031960e084901b1681526004810191909152336024820152604401600060405180830381600087803b1580156200092a57600080fd5b505af11580156200093f573d6000803e3d6000fd5b50505050806001600160a01b0316632f2ff15d826001600160a01b031663ec87621c6040518163ffffffff1660e01b815260040160206040518083038186803b1580156200098c57600080fd5b505afa158015620009a1573d6000803e3d6000fd5b505050506040513d601f19601f82011682018060405250810190620009c79190620014aa565b6040516001600160e01b031960e084901b1681526004810191909152336024820152604401600060405180830381600087803b15801562000a0757600080fd5b505af115801562000a1c573d6000803e3d6000fd5b50505050806001600160a01b0316632f2ff15d826001600160a01b031663e58378bb6040518163ffffffff1660e01b815260040160206040518083038186803b15801562000a6957600080fd5b505afa15801562000a7e573d6000803e3d6000fd5b505050506040513d601f19601f8201168201806040525081019062000aa49190620014aa565b60675460405160e084901b6001600160e01b031916815260048101929092526001600160a01b03166024820152604401600060405180830381600087803b15801562000aef57600080fd5b505af115801562000b04573d6000803e3d6000fd5b50505050806001600160a01b0316632f2ff15d826001600160a01b031663a217fddf6040518163ffffffff1660e01b815260040160206040518083038186803b15801562000b5157600080fd5b505afa15801562000b66573d6000803e3d6000fd5b505050506040513d601f19601f8201168201806040525081019062000b8c9190620014aa565b60675460405160e084901b6001600160e01b031916815260048101929092526001600160a01b03166024820152604401600060405180830381600087803b15801562000bd757600080fd5b505af115801562000bec573d6000803e3d6000fd5b50505050806001600160a01b0316632f2ff15d826001600160a01b031663ec87621c6040518163ffffffff1660e01b815260040160206040518083038186803b15801562000c3957600080fd5b505afa15801562000c4e573d6000803e3d6000fd5b505050506040513d601f19601f8201168201806040525081019062000c749190620014aa565b6033546001600160a01b03166040516001600160e01b031960e085901b16815260048101929092526001600160a01b03166024820152604401600060405180830381600087803b15801562000cc857600080fd5b505af115801562000cdd573d6000803e3d6000fd5b5050604080513381526001600160a01b03861660208201527f5d9c31ffa0fecffd7cf379989a3c7af252f0335e0d2a1320b55245912c781f53935001905060405180910390a15050505050565b60006200042b606563ffffffff8085169062000fe416565b6060600062000d52606562000fc8565b831162000d60578262000d6c565b62000d6c606562000fc8565b9050600062000d8263ffffffff861683620014da565b67ffffffffffffffff81111562000d9d5762000d9d62001167565b60405190808252806020026020018201604052801562000dc7578160200160208202803683370190505b509050845b828163ffffffff16101562000e395762000df1606563ffffffff8084169062000fe416565b828263ffffffff168151811062000e0c5762000e0c620014f4565b6001600160a01b03909216602092830291909101909101528062000e30816200150a565b91505062000dcc565b50949350505050565b62000e4c62000ee6565b6001600160a01b03811662000eb35760405162461bcd60e51b815260206004820152602660248201527f4f776e61626c653a206e6577206f776e657220697320746865207a65726f206160448201526564647265737360d01b606482015260840162000518565b62000ebe8162000f76565b50565b6001600160a01b038116600090815260018301602052604081205415155b9392505050565b6033546001600160a01b031633146200062e5760405162461bcd60e51b815260206004820181905260248201527f4f776e61626c653a2063616c6c6572206973206e6f7420746865206f776e6572604482015260640162000518565b600054610100900460ff1662000f6c5760405162461bcd60e51b8152600401620005189062001531565b6200062e62000ff2565b603380546001600160a01b038381166001600160a01b0319831681179093556040519116919082907f8be0079c531659141344cd1fd0a4f28419497f9722a3daafe3b4186f6b6457e090600090a35050565b60006200042b825490565b62000fe060658262001027565b5050565b600062000edf83836200103e565b600054610100900460ff166200101c5760405162461bcd60e51b8152600401620005189062001531565b6200062e3362000f76565b600062000edf836001600160a01b0384166200106b565b6000826000018281548110620010585762001058620014f4565b9060005260206000200154905092915050565b6000818152600183016020526040812054620010b4575081546001818101845560008481526020808220909301849055845484825282860190935260409020919091556200042b565b5060006200042b565b610af8806200157d83390190565b61093b806200207583390190565b6001600160a01b038116811462000ebe57600080fd5b6000602082840312156200110257600080fd5b813562000edf81620010d9565b6000602082840312156200112257600080fd5b5035919050565b600080604083850312156200113d57600080fd5b82356200114a81620010d9565b915060208301356200115c81620010d9565b809150509250929050565b634e487b7160e01b600052604160045260246000fd5b60405160a0810167ffffffffffffffff81118282101715620011af57634e487b7160e01b600052604160045260246000fd5b60405290565b60405160c0810167ffffffffffffffff81118282101715620011af57634e487b7160e01b600052604160045260246000fd5b600060608284031215620011fa57600080fd5b6040516060810181811067ffffffffffffffff821117156200122c57634e487b7160e01b600052604160045260246000fd5b80604052508091508235815260208301356020820152604083013580151581146200125657600080fd5b6040919091015292915050565b60008060008385036101c08112156200127b57600080fd5b60a08112156200128a57600080fd5b620012946200117d565b8535815260208601356020820152604086013560408201526060860135620012bc81620010d9565b60608201526080860135620012d181620010d9565b6080820152935060c0609f1982011215620012eb57600080fd5b50620012f6620011b5565b60a0850135815260c0850135602082015260e085013560408201526101008501356200132281620010d9565b60608201526101208501356200133881620010d9565b60808201526101408501356200134e81620010d9565b60a0820152915062001365856101608601620011e7565b90509250925092565b803563ffffffff811681146200138357600080fd5b919050565b6000602082840312156200139b57600080fd5b62000edf826200136e565b60008060408385031215620013ba57600080fd5b620013c5836200136e565b946020939093013593505050565b6020808252825182820181905260009190848201906040850190845b81811015620014165783516001600160a01b031683529284019291840191600101620013ef565b50909695505050505050565b6000602082840312156200143557600080fd5b815162000edf81620010d9565b60018060a01b038316815260006020604081840152835180604085015260005b81811015620014805785810183015185820160600152820162001462565b8181111562001493576000606083870101525b50601f01601f191692909201606001949350505050565b600060208284031215620014bd57600080fd5b5051919050565b634e487b7160e01b600052601160045260246000fd5b600082821015620014ef57620014ef620014c4565b500390565b634e487b7160e01b600052603260045260246000fd5b600063ffffffff80831681811415620015275762001527620014c4565b6001019392505050565b6020808252602b908201527f496e697469616c697a61626c653a20636f6e7472616374206973206e6f74206960408201526a6e697469616c697a696e6760a81b60608201526080019056fe60a060405234801561001057600080fd5b50604051610af8380380610af883398101604081905261002f916101dd565b610038336100a6565b80604051610045906101d0565b6001600160a01b039091168152602001604051809103906000f080158015610071573d6000803e3d6000fd5b506001600160a01b03908116608052600180546001600160a01b0319169183169190911790556100a0326100f6565b5061020d565b600080546001600160a01b038381166001600160a01b0319831681178455604051919092169283917f8be0079c531659141344cd1fd0a4f28419497f9722a3daafe3b4186f6b6457e09190a35050565b6100fe610174565b6001600160a01b0381166101685760405162461bcd60e51b815260206004820152602660248201527f4f776e61626c653a206e6577206f776e657220697320746865207a65726f206160448201526564647265737360d01b60648201526084015b60405180910390fd5b610171816100a6565b50565b6000546001600160a01b031633146101ce5760405162461bcd60e51b815260206004820181905260248201527f4f776e61626c653a2063616c6c6572206973206e6f7420746865206f776e6572604482015260640161015f565b565b6104e48061061483390190565b6000602082840312156101ef57600080fd5b81516001600160a01b038116811461020657600080fd5b9392505050565b6080516103e561022f60003960008181610106015261018901526103e56000f3fe608060405234801561001057600080fd5b50600436106100625760003560e01c80631c1b8772146100675780635c60da1b1461007c578063715018a6146100a05780638da5cb5b146100a8578063c05efa15146100b9578063f2fde38b146100cc575b600080fd5b61007a61007536600461036e565b6100df565b005b610084610185565b6040516001600160a01b03909116815260200160405180910390f35b61007a61021d565b6000546001600160a01b0316610084565b600154610084906001600160a01b031681565b61007a6100da36600461036e565b610231565b6100e76102af565b604051631b2ce7f360e11b81526001600160a01b0382811660048301527f00000000000000000000000000000000000000000000000000000000000000001690633659cfe690602401600060405180830381600087803b15801561014a57600080fd5b505af115801561015e573d6000803e3d6000fd5b5050600180546001600160a01b0319166001600160a01b0394909416939093179092555050565b60007f00000000000000000000000000000000000000000000000000000000000000006001600160a01b0316635c60da1b6040518163ffffffff1660e01b815260040160206040518083038186803b1580156101e057600080fd5b505afa1580156101f4573d6000803e3d6000fd5b505050506040513d601f19601f820116820180604052508101906102189190610392565b905090565b6102256102af565b61022f6000610309565b565b6102396102af565b6001600160a01b0381166102a35760405162461bcd60e51b815260206004820152602660248201527f4f776e61626c653a206e6577206f776e657220697320746865207a65726f206160448201526564647265737360d01b60648201526084015b60405180910390fd5b6102ac81610309565b50565b6000546001600160a01b0316331461022f5760405162461bcd60e51b815260206004820181905260248201527f4f776e61626c653a2063616c6c6572206973206e6f7420746865206f776e6572604482015260640161029a565b600080546001600160a01b038381166001600160a01b0319831681178455604051919092169283917f8be0079c531659141344cd1fd0a4f28419497f9722a3daafe3b4186f6b6457e09190a35050565b6001600160a01b03811681146102ac57600080fd5b60006020828403121561038057600080fd5b813561038b81610359565b9392505050565b6000602082840312156103a457600080fd5b815161038b8161035956fea2646970667358221220da77fc4dfa4c8bded91bb94334811a927b20422e099baf2a74c1205762e2568764736f6c63430008090033608060405234801561001057600080fd5b506040516104e43803806104e483398101604081905261002f91610151565b61003833610047565b61004181610097565b50610181565b600080546001600160a01b038381166001600160a01b0319831681178455604051919092169283917f8be0079c531659141344cd1fd0a4f28419497f9722a3daafe3b4186f6b6457e09190a35050565b6100aa8161014260201b6101a01760201c565b6101205760405162461bcd60e51b815260206004820152603360248201527f5570677261646561626c65426561636f6e3a20696d706c656d656e746174696f60448201527f6e206973206e6f74206120636f6e747261637400000000000000000000000000606482015260840160405180910390fd5b600180546001600160a01b0319166001600160a01b0392909216919091179055565b6001600160a01b03163b151590565b60006020828403121561016357600080fd5b81516001600160a01b038116811461017a57600080fd5b9392505050565b610354806101906000396000f3fe608060405234801561001057600080fd5b50600436106100575760003560e01c80633659cfe61461005c5780635c60da1b14610071578063715018a61461009a5780638da5cb5b146100a2578063f2fde38b146100b3575b600080fd5b61006f61006a3660046102ee565b6100c6565b005b6001546001600160a01b03165b6040516001600160a01b03909116815260200160405180910390f35b61006f61010e565b6000546001600160a01b031661007e565b61006f6100c13660046102ee565b610122565b6100ce6101af565b6100d781610209565b6040516001600160a01b038216907fbc7cd75a20ee27fd9adebab32041f755214dbc6bffa90cc0225b39da2e5c2d3b90600090a250565b6101166101af565b610120600061029e565b565b61012a6101af565b6001600160a01b0381166101945760405162461bcd60e51b815260206004820152602660248201527f4f776e61626c653a206e6577206f776e657220697320746865207a65726f206160448201526564647265737360d01b60648201526084015b60405180910390fd5b61019d8161029e565b50565b6001600160a01b03163b151590565b6000546001600160a01b031633146101205760405162461bcd60e51b815260206004820181905260248201527f4f776e61626c653a2063616c6c6572206973206e6f7420746865206f776e6572604482015260640161018b565b6001600160a01b0381163b61027c5760405162461bcd60e51b815260206004820152603360248201527f5570677261646561626c65426561636f6e3a20696d706c656d656e746174696f6044820152721b881a5cc81b9bdd08184818dbdb9d1c9858dd606a1b606482015260840161018b565b600180546001600160a01b0319166001600160a01b0392909216919091179055565b600080546001600160a01b038381166001600160a01b0319831681178455604051919092169283917f8be0079c531659141344cd1fd0a4f28419497f9722a3daafe3b4186f6b6457e09190a35050565b60006020828403121561030057600080fd5b81356001600160a01b038116811461031757600080fd5b939250505056fea264697066735822122071948ec535f218355f7b1a6b146021e45a71d4a4e7804487b9425355928d0eaa64736f6c63430008090033608060405260405161093b38038061093b8339810160408190526100229161047e565b61002e82826000610035565b50506105a8565b61003e8361010f565b6040516001600160a01b038416907f1cf3b03a6cf19fa2baba4df148e9dcabedea7f8a5c07840e207e5c089be95d3e90600090a260008251118061007f5750805b1561010a57610108836001600160a01b0316635c60da1b6040518163ffffffff1660e01b815260040160206040518083038186803b1580156100c057600080fd5b505afa1580156100d4573d6000803e3d6000fd5b505050506040513d601f19601f820116820180604052508101906100f8919061053e565b836102c160201b6100291760201c565b505b505050565b610122816102ed60201b6100551760201c565b6101815760405162461bcd60e51b815260206004820152602560248201527f455243313936373a206e657720626561636f6e206973206e6f74206120636f6e6044820152641d1c9858dd60da1b60648201526084015b60405180910390fd5b610204816001600160a01b0316635c60da1b6040518163ffffffff1660e01b815260040160206040518083038186803b1580156101bd57600080fd5b505afa1580156101d1573d6000803e3d6000fd5b505050506040513d601f19601f820116820180604052508101906101f5919061053e565b6102ed60201b6100551760201c565b6102695760405162461bcd60e51b815260206004820152603060248201527f455243313936373a20626561636f6e20696d706c656d656e746174696f6e206960448201526f1cc81b9bdd08184818dbdb9d1c9858dd60821b6064820152608401610178565b806102a07fa3f0ad74e5423aebfd80d3ef4346578335a9a72aeaee59ff6cb3582b35133d5060001b6102fc60201b6100641760201c565b80546001600160a01b0319166001600160a01b039290921691909117905550565b60606102e68383604051806060016040528060278152602001610914602791396102ff565b9392505050565b6001600160a01b03163b151590565b90565b6060600080856001600160a01b03168560405161031c9190610559565b600060405180830381855af49150503d8060008114610357576040519150601f19603f3d011682016040523d82523d6000602084013e61035c565b606091505b50909250905061036e86838387610378565b9695505050505050565b606083156103e45782516103dd576001600160a01b0385163b6103dd5760405162461bcd60e51b815260206004820152601d60248201527f416464726573733a2063616c6c20746f206e6f6e2d636f6e74726163740000006044820152606401610178565b50816103ee565b6103ee83836103f6565b949350505050565b8151156104065781518083602001fd5b8060405162461bcd60e51b81526004016101789190610575565b80516001600160a01b038116811461043757600080fd5b919050565b634e487b7160e01b600052604160045260246000fd5b60005b8381101561046d578181015183820152602001610455565b838111156101085750506000910152565b6000806040838503121561049157600080fd5b61049a83610420565b60208401519092506001600160401b03808211156104b757600080fd5b818501915085601f8301126104cb57600080fd5b8151818111156104dd576104dd61043c565b604051601f8201601f19908116603f011681019083821181831017156105055761050561043c565b8160405282815288602084870101111561051e57600080fd5b61052f836020830160208801610452565b80955050505050509250929050565b60006020828403121561055057600080fd5b6102e682610420565b6000825161056b818460208701610452565b9190910192915050565b6020815260008251806020840152610594816040850160208701610452565b601f01601f19169190910160400192915050565b61035d806105b76000396000f3fe60806040523661001357610011610017565b005b6100115b610027610022610067565b61010f565b565b606061004e838360405180606001604052806027815260200161030160279139610133565b9392505050565b6001600160a01b03163b151590565b90565b600061009a7fa3f0ad74e5423aebfd80d3ef4346578335a9a72aeaee59ff6cb3582b35133d50546001600160a01b031690565b6001600160a01b0316635c60da1b6040518163ffffffff1660e01b815260040160206040518083038186803b1580156100d257600080fd5b505afa1580156100e6573d6000803e3d6000fd5b505050506040513d601f19601f8201168201806040525081019061010a9190610258565b905090565b3660008037600080366000845af43d6000803e80801561012e573d6000f35b3d6000fd5b6060600080856001600160a01b03168560405161015091906102b1565b600060405180830381855af49150503d806000811461018b576040519150601f19603f3d011682016040523d82523d6000602084013e610190565b606091505b50915091506101a1868383876101ab565b9695505050505050565b6060831561021c578251610215576001600160a01b0385163b6102155760405162461bcd60e51b815260206004820152601d60248201527f416464726573733a2063616c6c20746f206e6f6e2d636f6e747261637400000060448201526064015b60405180910390fd5b5081610226565b610226838361022e565b949350505050565b81511561023e5781518083602001fd5b8060405162461bcd60e51b815260040161020c91906102cd565b60006020828403121561026a57600080fd5b81516001600160a01b038116811461004e57600080fd5b60005b8381101561029c578181015183820152602001610284565b838111156102ab576000848401525b50505050565b600082516102c3818460208701610281565b9190910192915050565b60208152600082518060208401526102ec816040850160208701610281565b601f01601f1916919091016040019291505056fe416464726573733a206c6f772d6c6576656c2064656c65676174652063616c6c206661696c6564a264697066735822122008e3e42bc0d525e25f65a02e5f2cbfc4108e5b6fca182c0ce53daa9db213f98364736f6c63430008090033416464726573733a206c6f772d6c6576656c2064656c65676174652063616c6c206661696c6564a2646970667358221220c741dadc52ba3e4d673381fac7aaca870c22ff3a2f50e7d8eb90fd5be38f913d64736f6c63430008090033",
  "devdoc": {
    "kind": "dev",
    "methods": {
      "owner()": {
        "details": "Returns the address of the current owner."
      },
      "renounceOwnership()": {
        "details": "Leaves the contract without owner. It will not be possible to call `onlyOwner` functions anymore. Can only be called by the current owner. NOTE: Renouncing ownership will leave the contract without an owner, thereby removing any functionality that is only available to the owner."
      },
      "transferOwnership(address)": {
        "details": "Transfers ownership of the contract to a new account (`newOwner`). Can only be called by the current owner."
      }
    },
    "version": 1
  },
  "userdoc": {
    "kind": "user",
    "methods": {},
    "version": 1
  },
  "storageLayout": {
    "storage": [
      {
        "astId": 547,
        "contract": "contracts/factories/SimpleTimeLockStakingVaultFactory/SimpleTimeLockStakingVaultFactory.sol:SimpleTimeLockStakingVaultFactory",
        "label": "_initialized",
        "offset": 0,
        "slot": "0",
        "type": "t_uint8"
      },
      {
        "astId": 550,
        "contract": "contracts/factories/SimpleTimeLockStakingVaultFactory/SimpleTimeLockStakingVaultFactory.sol:SimpleTimeLockStakingVaultFactory",
        "label": "_initializing",
        "offset": 1,
        "slot": "0",
        "type": "t_bool"
      },
      {
        "astId": 1034,
        "contract": "contracts/factories/SimpleTimeLockStakingVaultFactory/SimpleTimeLockStakingVaultFactory.sol:SimpleTimeLockStakingVaultFactory",
        "label": "__gap",
        "offset": 0,
        "slot": "1",
        "type": "t_array(t_uint256)50_storage"
      },
      {
        "astId": 419,
        "contract": "contracts/factories/SimpleTimeLockStakingVaultFactory/SimpleTimeLockStakingVaultFactory.sol:SimpleTimeLockStakingVaultFactory",
        "label": "_owner",
        "offset": 0,
        "slot": "51",
        "type": "t_address"
      },
      {
        "astId": 539,
        "contract": "contracts/factories/SimpleTimeLockStakingVaultFactory/SimpleTimeLockStakingVaultFactory.sol:SimpleTimeLockStakingVaultFactory",
        "label": "__gap",
        "offset": 0,
        "slot": "52",
        "type": "t_array(t_uint256)49_storage"
      },
      {
        "astId": 8830,
        "contract": "contracts/factories/SimpleTimeLockStakingVaultFactory/SimpleTimeLockStakingVaultFactory.sol:SimpleTimeLockStakingVaultFactory",
        "label": "deployedVaults",
        "offset": 0,
        "slot": "101",
        "type": "t_struct(AddressSet)6540_storage"
      },
      {
        "astId": 8832,
        "contract": "contracts/factories/SimpleTimeLockStakingVaultFactory/SimpleTimeLockStakingVaultFactory.sol:SimpleTimeLockStakingVaultFactory",
        "label": "admin",
        "offset": 0,
        "slot": "103",
        "type": "t_address"
      },
      {
        "astId": 8834,
        "contract": "contracts/factories/SimpleTimeLockStakingVaultFactory/SimpleTimeLockStakingVaultFactory.sol:SimpleTimeLockStakingVaultFactory",
        "label": "serviceFeeAddress",
        "offset": 0,
        "slot": "104",
        "type": "t_address"
      },
      {
        "astId": 8837,
        "contract": "contracts/factories/SimpleTimeLockStakingVaultFactory/SimpleTimeLockStakingVaultFactory.sol:SimpleTimeLockStakingVaultFactory",
        "label": "beacon",
        "offset": 0,
        "slot": "105",
        "type": "t_contract(VaultBeacon)8807"
      },
      {
        "astId": 8839,
        "contract": "contracts/factories/SimpleTimeLockStakingVaultFactory/SimpleTimeLockStakingVaultFactory.sol:SimpleTimeLockStakingVaultFactory",
        "label": "tax",
        "offset": 0,
        "slot": "106",
        "type": "t_uint256"
      },
      {
        "astId": 8841,
        "contract": "contracts/factories/SimpleTimeLockStakingVaultFactory/SimpleTimeLockStakingVaultFactory.sol:SimpleTimeLockStakingVaultFactory",
        "label": "serviceFee",
        "offset": 0,
        "slot": "107",
        "type": "t_uint256"
      },
      {
        "astId": 8843,
        "contract": "contracts/factories/SimpleTimeLockStakingVaultFactory/SimpleTimeLockStakingVaultFactory.sol:SimpleTimeLockStakingVaultFactory",
        "label": "emergencyTax",
        "offset": 0,
        "slot": "108",
        "type": "t_uint256"
      },
      {
        "astId": 9063,
        "contract": "contracts/factories/SimpleTimeLockStakingVaultFactory/SimpleTimeLockStakingVaultFactory.sol:SimpleTimeLockStakingVaultFactory",
        "label": "__gap",
        "offset": 0,
        "slot": "109",
        "type": "t_array(t_uint256)43_storage"
      }
    ],
    "types": {
      "t_address": {
        "encoding": "inplace",
        "label": "address",
        "numberOfBytes": "20"
      },
      "t_array(t_bytes32)dyn_storage": {
        "base": "t_bytes32",
        "encoding": "dynamic_array",
        "label": "bytes32[]",
        "numberOfBytes": "32"
      },
      "t_array(t_uint256)43_storage": {
        "base": "t_uint256",
        "encoding": "inplace",
        "label": "uint256[43]",
        "numberOfBytes": "1376"
      },
      "t_array(t_uint256)49_storage": {
        "base": "t_uint256",
        "encoding": "inplace",
        "label": "uint256[49]",
        "numberOfBytes": "1568"
      },
      "t_array(t_uint256)50_storage": {
        "base": "t_uint256",
        "encoding": "inplace",
        "label": "uint256[50]",
        "numberOfBytes": "1600"
      },
      "t_bool": {
        "encoding": "inplace",
        "label": "bool",
        "numberOfBytes": "1"
      },
      "t_bytes32": {
        "encoding": "inplace",
        "label": "bytes32",
        "numberOfBytes": "32"
      },
      "t_contract(VaultBeacon)8807": {
        "encoding": "inplace",
        "label": "contract VaultBeacon",
        "numberOfBytes": "20"
      },
      "t_mapping(t_bytes32,t_uint256)": {
        "encoding": "mapping",
        "key": "t_bytes32",
        "label": "mapping(bytes32 => uint256)",
        "numberOfBytes": "32",
        "value": "t_uint256"
      },
      "t_struct(AddressSet)6540_storage": {
        "encoding": "inplace",
        "label": "struct EnumerableSet.AddressSet",
        "members": [
          {
            "astId": 6539,
            "contract": "contracts/factories/SimpleTimeLockStakingVaultFactory/SimpleTimeLockStakingVaultFactory.sol:SimpleTimeLockStakingVaultFactory",
            "label": "_inner",
            "offset": 0,
            "slot": "0",
            "type": "t_struct(Set)6225_storage"
          }
        ],
        "numberOfBytes": "64"
      },
      "t_struct(Set)6225_storage": {
        "encoding": "inplace",
        "label": "struct EnumerableSet.Set",
        "members": [
          {
            "astId": 6220,
            "contract": "contracts/factories/SimpleTimeLockStakingVaultFactory/SimpleTimeLockStakingVaultFactory.sol:SimpleTimeLockStakingVaultFactory",
            "label": "_values",
            "offset": 0,
            "slot": "0",
            "type": "t_array(t_bytes32)dyn_storage"
          },
          {
            "astId": 6224,
            "contract": "contracts/factories/SimpleTimeLockStakingVaultFactory/SimpleTimeLockStakingVaultFactory.sol:SimpleTimeLockStakingVaultFactory",
            "label": "_indexes",
            "offset": 0,
            "slot": "1",
            "type": "t_mapping(t_bytes32,t_uint256)"
          }
        ],
        "numberOfBytes": "64"
      },
      "t_uint256": {
        "encoding": "inplace",
        "label": "uint256",
        "numberOfBytes": "32"
      },
      "t_uint8": {
        "encoding": "inplace",
        "label": "uint8",
        "numberOfBytes": "1"
      }
    }
  }
}